{
  "_format": "hh-sol-artifact-1",
  "contractName": "NFT_Marketplace",
  "sourceName": "contracts/NFT_MarketPlace.sol",
  "abi": [
    {
      "inputs": [
        {
          "internalType": "string",
          "name": "_name",
          "type": "string"
        },
        {
          "internalType": "string",
          "name": "_symbol",
          "type": "string"
        }
      ],
      "stateMutability": "nonpayable",
      "type": "constructor"
    },
    {
      "anonymous": false,
      "inputs": [
        {
          "indexed": true,
          "internalType": "address",
          "name": "owner",
          "type": "address"
        },
        {
          "indexed": true,
          "internalType": "address",
          "name": "approved",
          "type": "address"
        },
        {
          "indexed": true,
          "internalType": "uint256",
          "name": "tokenId",
          "type": "uint256"
        }
      ],
      "name": "Approval",
      "type": "event"
    },
    {
      "anonymous": false,
      "inputs": [
        {
          "indexed": true,
          "internalType": "address",
          "name": "owner",
          "type": "address"
        },
        {
          "indexed": true,
          "internalType": "address",
          "name": "operator",
          "type": "address"
        },
        {
          "indexed": false,
          "internalType": "bool",
          "name": "approved",
          "type": "bool"
        }
      ],
      "name": "ApprovalForAll",
      "type": "event"
    },
    {
      "anonymous": false,
      "inputs": [
        {
          "indexed": true,
          "internalType": "address",
          "name": "from",
          "type": "address"
        },
        {
          "indexed": true,
          "internalType": "address",
          "name": "to",
          "type": "address"
        },
        {
          "indexed": true,
          "internalType": "uint256",
          "name": "tokenId",
          "type": "uint256"
        }
      ],
      "name": "Transfer",
      "type": "event"
    },
    {
      "inputs": [
        {
          "internalType": "address",
          "name": "from",
          "type": "address"
        },
        {
          "internalType": "address",
          "name": "to",
          "type": "address"
        },
        {
          "internalType": "uint256",
          "name": "tokenId",
          "type": "uint256"
        }
      ],
      "name": "Transfer_NFT",
      "outputs": [],
      "stateMutability": "nonpayable",
      "type": "function"
    },
    {
      "inputs": [],
      "name": "_Mintingprice",
      "outputs": [
        {
          "internalType": "uint256",
          "name": "",
          "type": "uint256"
        }
      ],
      "stateMutability": "view",
      "type": "function"
    },
    {
      "inputs": [
        {
          "internalType": "address",
          "name": "to",
          "type": "address"
        },
        {
          "internalType": "uint256",
          "name": "tokenId",
          "type": "uint256"
        }
      ],
      "name": "approve",
      "outputs": [],
      "stateMutability": "nonpayable",
      "type": "function"
    },
    {
      "inputs": [
        {
          "internalType": "address",
          "name": "owner",
          "type": "address"
        }
      ],
      "name": "balanceOf",
      "outputs": [
        {
          "internalType": "uint256",
          "name": "",
          "type": "uint256"
        }
      ],
      "stateMutability": "view",
      "type": "function"
    },
    {
      "inputs": [
        {
          "internalType": "uint256",
          "name": "tokenId",
          "type": "uint256"
        }
      ],
      "name": "getApproved",
      "outputs": [
        {
          "internalType": "address",
          "name": "",
          "type": "address"
        }
      ],
      "stateMutability": "view",
      "type": "function"
    },
    {
      "inputs": [],
      "name": "getMyNfts",
      "outputs": [
        {
          "components": [
            {
              "internalType": "address",
              "name": "nftContract",
              "type": "address"
            },
            {
              "internalType": "uint256",
              "name": "tokenId",
              "type": "uint256"
            },
            {
              "internalType": "address payable",
              "name": "seller",
              "type": "address"
            },
            {
              "internalType": "address payable",
              "name": "owner",
              "type": "address"
            },
            {
              "internalType": "uint256",
              "name": "price",
              "type": "uint256"
            },
            {
              "internalType": "bool",
              "name": "listed",
              "type": "bool"
            }
          ],
          "internalType": "struct NFT_Marketplace.NFT[]",
          "name": "",
          "type": "tuple[]"
        }
      ],
      "stateMutability": "view",
      "type": "function"
    },
    {
      "inputs": [
        {
          "internalType": "address",
          "name": "owner",
          "type": "address"
        },
        {
          "internalType": "address",
          "name": "operator",
          "type": "address"
        }
      ],
      "name": "isApprovedForAll",
      "outputs": [
        {
          "internalType": "bool",
          "name": "",
          "type": "bool"
        }
      ],
      "stateMutability": "view",
      "type": "function"
    },
    {
      "inputs": [],
      "name": "isOwner",
      "outputs": [
        {
          "internalType": "bool",
          "name": "",
          "type": "bool"
        }
      ],
      "stateMutability": "view",
      "type": "function"
    },
    {
      "inputs": [],
      "name": "mint",
      "outputs": [],
      "stateMutability": "payable",
      "type": "function"
    },
    {
      "inputs": [],
      "name": "name",
      "outputs": [
        {
          "internalType": "string",
          "name": "",
          "type": "string"
        }
      ],
      "stateMutability": "view",
      "type": "function"
    },
    {
      "inputs": [
        {
          "internalType": "uint256",
          "name": "tokenId",
          "type": "uint256"
        }
      ],
      "name": "ownerOf",
      "outputs": [
        {
          "internalType": "address",
          "name": "",
          "type": "address"
        }
      ],
      "stateMutability": "view",
      "type": "function"
    },
    {
      "inputs": [
        {
          "internalType": "address",
          "name": "from",
          "type": "address"
        },
        {
          "internalType": "address",
          "name": "to",
          "type": "address"
        },
        {
          "internalType": "uint256",
          "name": "tokenId",
          "type": "uint256"
        }
      ],
      "name": "safeTransferFrom",
      "outputs": [],
      "stateMutability": "nonpayable",
      "type": "function"
    },
    {
      "inputs": [
        {
          "internalType": "address",
          "name": "from",
          "type": "address"
        },
        {
          "internalType": "address",
          "name": "to",
          "type": "address"
        },
        {
          "internalType": "uint256",
          "name": "tokenId",
          "type": "uint256"
        },
        {
          "internalType": "bytes",
          "name": "data",
          "type": "bytes"
        }
      ],
      "name": "safeTransferFrom",
      "outputs": [],
      "stateMutability": "nonpayable",
      "type": "function"
    },
    {
      "inputs": [
        {
          "internalType": "address",
          "name": "operator",
          "type": "address"
        },
        {
          "internalType": "bool",
          "name": "approved",
          "type": "bool"
        }
      ],
      "name": "setApprovalForAll",
      "outputs": [],
      "stateMutability": "nonpayable",
      "type": "function"
    },
    {
      "inputs": [
        {
          "internalType": "bytes4",
          "name": "interfaceId",
          "type": "bytes4"
        }
      ],
      "name": "supportsInterface",
      "outputs": [
        {
          "internalType": "bool",
          "name": "",
          "type": "bool"
        }
      ],
      "stateMutability": "view",
      "type": "function"
    },
    {
      "inputs": [],
      "name": "symbol",
      "outputs": [
        {
          "internalType": "string",
          "name": "",
          "type": "string"
        }
      ],
      "stateMutability": "view",
      "type": "function"
    },
    {
      "inputs": [
        {
          "internalType": "uint256",
          "name": "index",
          "type": "uint256"
        }
      ],
      "name": "tokenByIndex",
      "outputs": [
        {
          "internalType": "uint256",
          "name": "",
          "type": "uint256"
        }
      ],
      "stateMutability": "view",
      "type": "function"
    },
    {
      "inputs": [],
      "name": "tokenIds",
      "outputs": [
        {
          "internalType": "uint256",
          "name": "",
          "type": "uint256"
        }
      ],
      "stateMutability": "view",
      "type": "function"
    },
    {
      "inputs": [
        {
          "internalType": "address",
          "name": "owner",
          "type": "address"
        },
        {
          "internalType": "uint256",
          "name": "index",
          "type": "uint256"
        }
      ],
      "name": "tokenOfOwnerByIndex",
      "outputs": [
        {
          "internalType": "uint256",
          "name": "",
          "type": "uint256"
        }
      ],
      "stateMutability": "view",
      "type": "function"
    },
    {
      "inputs": [
        {
          "internalType": "uint256",
          "name": "tokenId",
          "type": "uint256"
        }
      ],
      "name": "tokenURI",
      "outputs": [
        {
          "internalType": "string",
          "name": "",
          "type": "string"
        }
      ],
      "stateMutability": "view",
      "type": "function"
    },
    {
      "inputs": [],
      "name": "totalSupply",
      "outputs": [
        {
          "internalType": "uint256",
          "name": "",
          "type": "uint256"
        }
      ],
      "stateMutability": "view",
      "type": "function"
    },
    {
      "inputs": [
        {
          "internalType": "address",
          "name": "from",
          "type": "address"
        },
        {
          "internalType": "address",
          "name": "to",
          "type": "address"
        },
        {
          "internalType": "uint256",
          "name": "tokenId",
          "type": "uint256"
        }
      ],
      "name": "transferFrom",
      "outputs": [],
      "stateMutability": "nonpayable",
      "type": "function"
    },
    {
      "inputs": [
        {
          "internalType": "address",
          "name": "",
          "type": "address"
        }
      ],
      "name": "votingPower",
      "outputs": [
        {
          "internalType": "uint256",
          "name": "",
          "type": "uint256"
        }
      ],
      "stateMutability": "view",
      "type": "function"
    }
  ],
  "bytecode": "0x60806040526509184e72a000600b553480156200001b57600080fd5b5060405162003ce738038062003ce7833981810160405281019062000041919062000315565b818181600090805190602001906200005b929190620000c8565b50806001908051906020019062000074929190620000c8565b50505033600d60006101000a81548173ffffffffffffffffffffffffffffffffffffffff021916908373ffffffffffffffffffffffffffffffffffffffff1602179055506000600c819055505050620003fe565b828054620000d690620003c9565b90600052602060002090601f016020900481019282620000fa576000855562000146565b82601f106200011557805160ff191683800117855562000146565b8280016001018555821562000146579182015b828111156200014557825182559160200191906001019062000128565b5b50905062000155919062000159565b5090565b5b80821115620001745760008160009055506001016200015a565b5090565b6000604051905090565b600080fd5b600080fd5b600080fd5b600080fd5b6000601f19601f8301169050919050565b7f4e487b7100000000000000000000000000000000000000000000000000000000600052604160045260246000fd5b620001e18262000196565b810181811067ffffffffffffffff82111715620002035762000202620001a7565b5b80604052505050565b60006200021862000178565b9050620002268282620001d6565b919050565b600067ffffffffffffffff821115620002495762000248620001a7565b5b620002548262000196565b9050602081019050919050565b60005b838110156200028157808201518184015260208101905062000264565b8381111562000291576000848401525b50505050565b6000620002ae620002a8846200022b565b6200020c565b905082815260208101848484011115620002cd57620002cc62000191565b5b620002da84828562000261565b509392505050565b600082601f830112620002fa57620002f96200018c565b5b81516200030c84826020860162000297565b91505092915050565b600080604083850312156200032f576200032e62000182565b5b600083015167ffffffffffffffff81111562000350576200034f62000187565b5b6200035e85828601620002e2565b925050602083015167ffffffffffffffff81111562000382576200038162000187565b5b6200039085828601620002e2565b9150509250929050565b7f4e487b7100000000000000000000000000000000000000000000000000000000600052602260045260246000fd5b60006002820490506001821680620003e257607f821691505b602082108103620003f857620003f76200039a565b5b50919050565b6138d9806200040e6000396000f3fe6080604052600436106101405760003560e01c80636352211e116100b6578063b88d4fde1161006f578063b88d4fde14610463578063bd2f60761461048c578063c07473f6146104b7578063c87b56dd146104f4578063dbee53ac14610531578063e985e9c51461055a57610140565b80636352211e1461033f57806370a082311461037c578063714cff56146103b95780638f32d59b146103e457806395d89b411461040f578063a22cb4651461043a57610140565b80631249c58b116101085780631249c58b1461023e57806318160ddd1461024857806323b872dd146102735780632f745c591461029c57806342842e0e146102d95780634f6ccce71461030257610140565b806301ffc9a714610145578063047b07bf1461018257806306fdde03146101ad578063081812fc146101d8578063095ea7b314610215575b600080fd5b34801561015157600080fd5b5061016c600480360381019061016791906126f4565b610597565b604051610179919061273c565b60405180910390f35b34801561018e57600080fd5b50610197610611565b6040516101a4919061290b565b60405180910390f35b3480156101b957600080fd5b506101c2610944565b6040516101cf91906129c6565b60405180910390f35b3480156101e457600080fd5b506101ff60048036038101906101fa9190612a14565b6109d6565b60405161020c9190612a50565b60405180910390f35b34801561022157600080fd5b5061023c60048036038101906102379190612a97565b610a1c565b005b610246610b33565b005b34801561025457600080fd5b5061025d610bb0565b60405161026a9190612ae6565b60405180910390f35b34801561027f57600080fd5b5061029a60048036038101906102959190612b01565b610bbd565b005b3480156102a857600080fd5b506102c360048036038101906102be9190612a97565b610c1d565b6040516102d09190612ae6565b60405180910390f35b3480156102e557600080fd5b5061030060048036038101906102fb9190612b01565b610cc2565b005b34801561030e57600080fd5b5061032960048036038101906103249190612a14565b610ce2565b6040516103369190612ae6565b60405180910390f35b34801561034b57600080fd5b5061036660048036038101906103619190612a14565b610d53565b6040516103739190612a50565b60405180910390f35b34801561038857600080fd5b506103a3600480360381019061039e9190612b54565b610dd9565b6040516103b09190612ae6565b60405180910390f35b3480156103c557600080fd5b506103ce610e90565b6040516103db9190612ae6565b60405180910390f35b3480156103f057600080fd5b506103f9610e96565b604051610406919061273c565b60405180910390f35b34801561041b57600080fd5b50610424610eee565b60405161043191906129c6565b60405180910390f35b34801561044657600080fd5b50610461600480360381019061045c9190612bad565b610f80565b005b34801561046f57600080fd5b5061048a60048036038101906104859190612d22565b610f96565b005b34801561049857600080fd5b506104a1610ff8565b6040516104ae9190612ae6565b60405180910390f35b3480156104c357600080fd5b506104de60048036038101906104d99190612b54565b610ffe565b6040516104eb9190612ae6565b60405180910390f35b34801561050057600080fd5b5061051b60048036038101906105169190612a14565b611016565b60405161052891906129c6565b60405180910390f35b34801561053d57600080fd5b5061055860048036038101906105539190612b01565b61107e565b005b34801561056657600080fd5b50610581600480360381019061057c9190612da5565b611138565b60405161058e919061273c565b60405180910390f35b60007f780e9d63000000000000000000000000000000000000000000000000000000007bffffffffffffffffffffffffffffffffffffffffffffffffffffffff1916827bffffffffffffffffffffffffffffffffffffffffffffffffffffffff1916148061060a5750610609826111cc565b5b9050919050565b6060600061061f600a6112ae565b90506000805b828110156106c4573373ffffffffffffffffffffffffffffffffffffffff16600e60006001846106559190612e14565b815260200190815260200160002060030160009054906101000a900473ffffffffffffffffffffffffffffffffffffffff1673ffffffffffffffffffffffffffffffffffffffff16036106b15781806106ad90612e6a565b9250505b80806106bc90612e6a565b915050610625565b5060008167ffffffffffffffff8111156106e1576106e0612bf7565b5b60405190808252806020026020018201604052801561071a57816020015b61070761260e565b8152602001906001900390816106ff5790505b5090506000805b84811015610939573373ffffffffffffffffffffffffffffffffffffffff16600e60006001846107519190612e14565b815260200190815260200160002060030160009054906101000a900473ffffffffffffffffffffffffffffffffffffffff1673ffffffffffffffffffffffffffffffffffffffff160361092657600e60006001836107af9190612e14565b81526020019081526020016000206040518060c00160405290816000820160009054906101000a900473ffffffffffffffffffffffffffffffffffffffff1673ffffffffffffffffffffffffffffffffffffffff1673ffffffffffffffffffffffffffffffffffffffff168152602001600182015481526020016002820160009054906101000a900473ffffffffffffffffffffffffffffffffffffffff1673ffffffffffffffffffffffffffffffffffffffff1673ffffffffffffffffffffffffffffffffffffffff1681526020016003820160009054906101000a900473ffffffffffffffffffffffffffffffffffffffff1673ffffffffffffffffffffffffffffffffffffffff1673ffffffffffffffffffffffffffffffffffffffff168152602001600482015481526020016005820160009054906101000a900460ff16151515158152505083838151811061090c5761090b612eb2565b5b6020026020010181905250818061092290612e6a565b9250505b808061093190612e6a565b915050610721565b508194505050505090565b60606000805461095390612f10565b80601f016020809104026020016040519081016040528092919081815260200182805461097f90612f10565b80156109cc5780601f106109a1576101008083540402835291602001916109cc565b820191906000526020600020905b8154815290600101906020018083116109af57829003601f168201915b5050505050905090565b60006109e1826112bc565b6004600083815260200190815260200160002060009054906101000a900473ffffffffffffffffffffffffffffffffffffffff169050919050565b6000610a2782610d53565b90508073ffffffffffffffffffffffffffffffffffffffff168373ffffffffffffffffffffffffffffffffffffffff1603610a97576040517f08c379a0000000000000000000000000000000000000000000000000000000008152600401610a8e90612fb3565b60405180910390fd5b8073ffffffffffffffffffffffffffffffffffffffff16610ab6611307565b73ffffffffffffffffffffffffffffffffffffffff161480610ae55750610ae481610adf611307565b611138565b5b610b24576040517f08c379a0000000000000000000000000000000000000000000000000000000008152600401610b1b90613045565b60405180910390fd5b610b2e838361130f565b505050565b6001600c6000828254610b469190612e14565b92505081905550610b5933600c546113c8565b600f60003373ffffffffffffffffffffffffffffffffffffffff1673ffffffffffffffffffffffffffffffffffffffff1681526020019081526020016000206000815480929190610ba990612e6a565b9190505550565b6000600880549050905090565b610bce610bc8611307565b826113e6565b610c0d576040517f08c379a0000000000000000000000000000000000000000000000000000000008152600401610c04906130d7565b60405180910390fd5b610c1883838361147b565b505050565b6000610c2883610dd9565b8210610c69576040517f08c379a0000000000000000000000000000000000000000000000000000000008152600401610c6090613169565b60405180910390fd5b600660008473ffffffffffffffffffffffffffffffffffffffff1673ffffffffffffffffffffffffffffffffffffffff168152602001908152602001600020600083815260200190815260200160002054905092915050565b610cdd83838360405180602001604052806000815250610f96565b505050565b6000610cec610bb0565b8210610d2d576040517f08c379a0000000000000000000000000000000000000000000000000000000008152600401610d24906131fb565b60405180910390fd5b60088281548110610d4157610d40612eb2565b5b90600052602060002001549050919050565b600080610d5f83611774565b9050600073ffffffffffffffffffffffffffffffffffffffff168173ffffffffffffffffffffffffffffffffffffffff1603610dd0576040517f08c379a0000000000000000000000000000000000000000000000000000000008152600401610dc790613267565b60405180910390fd5b80915050919050565b60008073ffffffffffffffffffffffffffffffffffffffff168273ffffffffffffffffffffffffffffffffffffffff1603610e49576040517f08c379a0000000000000000000000000000000000000000000000000000000008152600401610e40906132f9565b60405180910390fd5b600360008373ffffffffffffffffffffffffffffffffffffffff1673ffffffffffffffffffffffffffffffffffffffff168152602001908152602001600020549050919050565b600c5481565b6000600d60009054906101000a900473ffffffffffffffffffffffffffffffffffffffff1673ffffffffffffffffffffffffffffffffffffffff163373ffffffffffffffffffffffffffffffffffffffff1614905090565b606060018054610efd90612f10565b80601f0160208091040260200160405190810160405280929190818152602001828054610f2990612f10565b8015610f765780601f10610f4b57610100808354040283529160200191610f76565b820191906000526020600020905b815481529060010190602001808311610f5957829003601f168201915b5050505050905090565b610f92610f8b611307565b83836117b1565b5050565b610fa7610fa1611307565b836113e6565b610fe6576040517f08c379a0000000000000000000000000000000000000000000000000000000008152600401610fdd906130d7565b60405180910390fd5b610ff28484848461191d565b50505050565b600b5481565b600f6020528060005260406000206000915090505481565b6060611021826112bc565b600061102b611979565b9050600081511161104b5760405180602001604052806000815250611076565b8061105584611990565b604051602001611066929190613355565b6040516020818303038152906040525b915050919050565b611089838383610bbd565b600f60008373ffffffffffffffffffffffffffffffffffffffff1673ffffffffffffffffffffffffffffffffffffffff16815260200190815260200160002060008154809291906110d990612e6a565b9190505550600f60008473ffffffffffffffffffffffffffffffffffffffff1673ffffffffffffffffffffffffffffffffffffffff168152602001908152602001600020600081548092919061112e90613379565b9190505550505050565b6000600560008473ffffffffffffffffffffffffffffffffffffffff1673ffffffffffffffffffffffffffffffffffffffff16815260200190815260200160002060008373ffffffffffffffffffffffffffffffffffffffff1673ffffffffffffffffffffffffffffffffffffffff16815260200190815260200160002060009054906101000a900460ff16905092915050565b60007f80ac58cd000000000000000000000000000000000000000000000000000000007bffffffffffffffffffffffffffffffffffffffffffffffffffffffff1916827bffffffffffffffffffffffffffffffffffffffffffffffffffffffff1916148061129757507f5b5e139f000000000000000000000000000000000000000000000000000000007bffffffffffffffffffffffffffffffffffffffffffffffffffffffff1916827bffffffffffffffffffffffffffffffffffffffffffffffffffffffff1916145b806112a757506112a682611a5e565b5b9050919050565b600081600001549050919050565b6112c581611ac8565b611304576040517f08c379a00000000000000000000000000000000000000000000000000000000081526004016112fb90613267565b60405180910390fd5b50565b600033905090565b816004600083815260200190815260200160002060006101000a81548173ffffffffffffffffffffffffffffffffffffffff021916908373ffffffffffffffffffffffffffffffffffffffff160217905550808273ffffffffffffffffffffffffffffffffffffffff1661138283610d53565b73ffffffffffffffffffffffffffffffffffffffff167f8c5be1e5ebec7d5bd14f71427d1e84f3dd0314c0f7b2291e5b200ac8c7c3b92560405160405180910390a45050565b6113e2828260405180602001604052806000815250611b09565b5050565b6000806113f283610d53565b90508073ffffffffffffffffffffffffffffffffffffffff168473ffffffffffffffffffffffffffffffffffffffff16148061143457506114338185611138565b5b8061147257508373ffffffffffffffffffffffffffffffffffffffff1661145a846109d6565b73ffffffffffffffffffffffffffffffffffffffff16145b91505092915050565b8273ffffffffffffffffffffffffffffffffffffffff1661149b82610d53565b73ffffffffffffffffffffffffffffffffffffffff16146114f1576040517f08c379a00000000000000000000000000000000000000000000000000000000081526004016114e890613414565b60405180910390fd5b600073ffffffffffffffffffffffffffffffffffffffff168273ffffffffffffffffffffffffffffffffffffffff1603611560576040517f08c379a0000000000000000000000000000000000000000000000000000000008152600401611557906134a6565b60405180910390fd5b61156d8383836001611b64565b8273ffffffffffffffffffffffffffffffffffffffff1661158d82610d53565b73ffffffffffffffffffffffffffffffffffffffff16146115e3576040517f08c379a00000000000000000000000000000000000000000000000000000000081526004016115da90613414565b60405180910390fd5b6004600082815260200190815260200160002060006101000a81549073ffffffffffffffffffffffffffffffffffffffff02191690556001600360008573ffffffffffffffffffffffffffffffffffffffff1673ffffffffffffffffffffffffffffffffffffffff168152602001908152602001600020600082825403925050819055506001600360008473ffffffffffffffffffffffffffffffffffffffff1673ffffffffffffffffffffffffffffffffffffffff16815260200190815260200160002060008282540192505081905550816002600083815260200190815260200160002060006101000a81548173ffffffffffffffffffffffffffffffffffffffff021916908373ffffffffffffffffffffffffffffffffffffffff160217905550808273ffffffffffffffffffffffffffffffffffffffff168473ffffffffffffffffffffffffffffffffffffffff167fddf252ad1be2c89b69c2b068fc378daa952ba7f163c4a11628f55a4df523b3ef60405160405180910390a461176f8383836001611cc2565b505050565b60006002600083815260200190815260200160002060009054906101000a900473ffffffffffffffffffffffffffffffffffffffff169050919050565b8173ffffffffffffffffffffffffffffffffffffffff168373ffffffffffffffffffffffffffffffffffffffff160361181f576040517f08c379a000000000000000000000000000000000000000000000000000000000815260040161181690613512565b60405180910390fd5b80600560008573ffffffffffffffffffffffffffffffffffffffff1673ffffffffffffffffffffffffffffffffffffffff16815260200190815260200160002060008473ffffffffffffffffffffffffffffffffffffffff1673ffffffffffffffffffffffffffffffffffffffff16815260200190815260200160002060006101000a81548160ff0219169083151502179055508173ffffffffffffffffffffffffffffffffffffffff168373ffffffffffffffffffffffffffffffffffffffff167f17307eab39ab6107e8899845ad3d59bd9653f200f220920489ca2b5937696c3183604051611910919061273c565b60405180910390a3505050565b61192884848461147b565b61193484848484611cc8565b611973576040517f08c379a000000000000000000000000000000000000000000000000000000000815260040161196a906135a4565b60405180910390fd5b50505050565b606060405180602001604052806000815250905090565b60606000600161199f84611e4f565b01905060008167ffffffffffffffff8111156119be576119bd612bf7565b5b6040519080825280601f01601f1916602001820160405280156119f05781602001600182028036833780820191505090505b509050600082602001820190505b600115611a53578080600190039150507f3031323334353637383961626364656600000000000000000000000000000000600a86061a8153600a8581611a4757611a466135c4565b5b049450600085036119fe575b819350505050919050565b60007f01ffc9a7000000000000000000000000000000000000000000000000000000007bffffffffffffffffffffffffffffffffffffffffffffffffffffffff1916827bffffffffffffffffffffffffffffffffffffffffffffffffffffffff1916149050919050565b60008073ffffffffffffffffffffffffffffffffffffffff16611aea83611774565b73ffffffffffffffffffffffffffffffffffffffff1614159050919050565b611b138383611fa2565b611b206000848484611cc8565b611b5f576040517f08c379a0000000000000000000000000000000000000000000000000000000008152600401611b56906135a4565b60405180910390fd5b505050565b611b70848484846121bf565b6001811115611bb4576040517f08c379a0000000000000000000000000000000000000000000000000000000008152600401611bab90613665565b60405180910390fd5b6000829050600073ffffffffffffffffffffffffffffffffffffffff168573ffffffffffffffffffffffffffffffffffffffff1603611bfb57611bf6816122e5565b611c3a565b8373ffffffffffffffffffffffffffffffffffffffff168573ffffffffffffffffffffffffffffffffffffffff1614611c3957611c38858261232e565b5b5b600073ffffffffffffffffffffffffffffffffffffffff168473ffffffffffffffffffffffffffffffffffffffff1603611c7c57611c778161249b565b611cbb565b8473ffffffffffffffffffffffffffffffffffffffff168473ffffffffffffffffffffffffffffffffffffffff1614611cba57611cb9848261256c565b5b5b5050505050565b50505050565b6000611ce98473ffffffffffffffffffffffffffffffffffffffff166125eb565b15611e42578373ffffffffffffffffffffffffffffffffffffffff1663150b7a02611d12611307565b8786866040518563ffffffff1660e01b8152600401611d3494939291906136da565b6020604051808303816000875af1925050508015611d7057506040513d601f19601f82011682018060405250810190611d6d919061373b565b60015b611df2573d8060008114611da0576040519150601f19603f3d011682016040523d82523d6000602084013e611da5565b606091505b506000815103611dea576040517f08c379a0000000000000000000000000000000000000000000000000000000008152600401611de1906135a4565b60405180910390fd5b805181602001fd5b63150b7a0260e01b7bffffffffffffffffffffffffffffffffffffffffffffffffffffffff1916817bffffffffffffffffffffffffffffffffffffffffffffffffffffffff191614915050611e47565b600190505b949350505050565b600080600090507a184f03e93ff9f4daa797ed6e38ed64bf6a1f0100000000000000008310611ead577a184f03e93ff9f4daa797ed6e38ed64bf6a1f0100000000000000008381611ea357611ea26135c4565b5b0492506040810190505b6d04ee2d6d415b85acef81000000008310611eea576d04ee2d6d415b85acef81000000008381611ee057611edf6135c4565b5b0492506020810190505b662386f26fc100008310611f1957662386f26fc100008381611f0f57611f0e6135c4565b5b0492506010810190505b6305f5e1008310611f42576305f5e1008381611f3857611f376135c4565b5b0492506008810190505b6127108310611f67576127108381611f5d57611f5c6135c4565b5b0492506004810190505b60648310611f8a5760648381611f8057611f7f6135c4565b5b0492506002810190505b600a8310611f99576001810190505b80915050919050565b600073ffffffffffffffffffffffffffffffffffffffff168273ffffffffffffffffffffffffffffffffffffffff1603612011576040517f08c379a0000000000000000000000000000000000000000000000000000000008152600401612008906137b4565b60405180910390fd5b61201a81611ac8565b1561205a576040517f08c379a000000000000000000000000000000000000000000000000000000000815260040161205190613820565b60405180910390fd5b612068600083836001611b64565b61207181611ac8565b156120b1576040517f08c379a00000000000000000000000000000000000000000000000000000000081526004016120a890613820565b60405180910390fd5b6001600360008473ffffffffffffffffffffffffffffffffffffffff1673ffffffffffffffffffffffffffffffffffffffff16815260200190815260200160002060008282540192505081905550816002600083815260200190815260200160002060006101000a81548173ffffffffffffffffffffffffffffffffffffffff021916908373ffffffffffffffffffffffffffffffffffffffff160217905550808273ffffffffffffffffffffffffffffffffffffffff16600073ffffffffffffffffffffffffffffffffffffffff167fddf252ad1be2c89b69c2b068fc378daa952ba7f163c4a11628f55a4df523b3ef60405160405180910390a46121bb600083836001611cc2565b5050565b60018111156122df57600073ffffffffffffffffffffffffffffffffffffffff168473ffffffffffffffffffffffffffffffffffffffff16146122535780600360008673ffffffffffffffffffffffffffffffffffffffff1673ffffffffffffffffffffffffffffffffffffffff168152602001908152602001600020600082825461224b9190613840565b925050819055505b600073ffffffffffffffffffffffffffffffffffffffff168373ffffffffffffffffffffffffffffffffffffffff16146122de5780600360008573ffffffffffffffffffffffffffffffffffffffff1673ffffffffffffffffffffffffffffffffffffffff16815260200190815260200160002060008282546122d69190612e14565b925050819055505b5b50505050565b6008805490506009600083815260200190815260200160002081905550600881908060018154018082558091505060019003906000526020600020016000909190919091505550565b6000600161233b84610dd9565b6123459190613840565b905060006007600084815260200190815260200160002054905081811461242a576000600660008673ffffffffffffffffffffffffffffffffffffffff1673ffffffffffffffffffffffffffffffffffffffff168152602001908152602001600020600084815260200190815260200160002054905080600660008773ffffffffffffffffffffffffffffffffffffffff1673ffffffffffffffffffffffffffffffffffffffff168152602001908152602001600020600084815260200190815260200160002081905550816007600083815260200190815260200160002081905550505b6007600084815260200190815260200160002060009055600660008573ffffffffffffffffffffffffffffffffffffffff1673ffffffffffffffffffffffffffffffffffffffff16815260200190815260200160002060008381526020019081526020016000206000905550505050565b600060016008805490506124af9190613840565b90506000600960008481526020019081526020016000205490506000600883815481106124df576124de612eb2565b5b90600052602060002001549050806008838154811061250157612500612eb2565b5b9060005260206000200181905550816009600083815260200190815260200160002081905550600960008581526020019081526020016000206000905560088054806125505761254f613874565b5b6001900381819060005260206000200160009055905550505050565b600061257783610dd9565b905081600660008573ffffffffffffffffffffffffffffffffffffffff1673ffffffffffffffffffffffffffffffffffffffff168152602001908152602001600020600083815260200190815260200160002081905550806007600084815260200190815260200160002081905550505050565b6000808273ffffffffffffffffffffffffffffffffffffffff163b119050919050565b6040518060c00160405280600073ffffffffffffffffffffffffffffffffffffffff16815260200160008152602001600073ffffffffffffffffffffffffffffffffffffffff168152602001600073ffffffffffffffffffffffffffffffffffffffff168152602001600081526020016000151581525090565b6000604051905090565b600080fd5b600080fd5b60007fffffffff0000000000000000000000000000000000000000000000000000000082169050919050565b6126d18161269c565b81146126dc57600080fd5b50565b6000813590506126ee816126c8565b92915050565b60006020828403121561270a57612709612692565b5b6000612718848285016126df565b91505092915050565b60008115159050919050565b61273681612721565b82525050565b6000602082019050612751600083018461272d565b92915050565b600081519050919050565b600082825260208201905092915050565b6000819050602082019050919050565b600073ffffffffffffffffffffffffffffffffffffffff82169050919050565b60006127ae82612783565b9050919050565b6127be816127a3565b82525050565b6000819050919050565b6127d7816127c4565b82525050565b60006127e882612783565b9050919050565b6127f8816127dd565b82525050565b61280781612721565b82525050565b60c08201600082015161282360008501826127b5565b50602082015161283660208501826127ce565b50604082015161284960408501826127ef565b50606082015161285c60608501826127ef565b50608082015161286f60808501826127ce565b5060a082015161288260a08501826127fe565b50505050565b6000612894838361280d565b60c08301905092915050565b6000602082019050919050565b60006128b882612757565b6128c28185612762565b93506128cd83612773565b8060005b838110156128fe5781516128e58882612888565b97506128f0836128a0565b9250506001810190506128d1565b5085935050505092915050565b6000602082019050818103600083015261292581846128ad565b905092915050565b600081519050919050565b600082825260208201905092915050565b60005b8381101561296757808201518184015260208101905061294c565b83811115612976576000848401525b50505050565b6000601f19601f8301169050919050565b60006129988261292d565b6129a28185612938565b93506129b2818560208601612949565b6129bb8161297c565b840191505092915050565b600060208201905081810360008301526129e0818461298d565b905092915050565b6129f1816127c4565b81146129fc57600080fd5b50565b600081359050612a0e816129e8565b92915050565b600060208284031215612a2a57612a29612692565b5b6000612a38848285016129ff565b91505092915050565b612a4a816127a3565b82525050565b6000602082019050612a656000830184612a41565b92915050565b612a74816127a3565b8114612a7f57600080fd5b50565b600081359050612a9181612a6b565b92915050565b60008060408385031215612aae57612aad612692565b5b6000612abc85828601612a82565b9250506020612acd858286016129ff565b9150509250929050565b612ae0816127c4565b82525050565b6000602082019050612afb6000830184612ad7565b92915050565b600080600060608486031215612b1a57612b19612692565b5b6000612b2886828701612a82565b9350506020612b3986828701612a82565b9250506040612b4a868287016129ff565b9150509250925092565b600060208284031215612b6a57612b69612692565b5b6000612b7884828501612a82565b91505092915050565b612b8a81612721565b8114612b9557600080fd5b50565b600081359050612ba781612b81565b92915050565b60008060408385031215612bc457612bc3612692565b5b6000612bd285828601612a82565b9250506020612be385828601612b98565b9150509250929050565b600080fd5b600080fd5b7f4e487b7100000000000000000000000000000000000000000000000000000000600052604160045260246000fd5b612c2f8261297c565b810181811067ffffffffffffffff82111715612c4e57612c4d612bf7565b5b80604052505050565b6000612c61612688565b9050612c6d8282612c26565b919050565b600067ffffffffffffffff821115612c8d57612c8c612bf7565b5b612c968261297c565b9050602081019050919050565b82818337600083830152505050565b6000612cc5612cc084612c72565b612c57565b905082815260208101848484011115612ce157612ce0612bf2565b5b612cec848285612ca3565b509392505050565b600082601f830112612d0957612d08612bed565b5b8135612d19848260208601612cb2565b91505092915050565b60008060008060808587031215612d3c57612d3b612692565b5b6000612d4a87828801612a82565b9450506020612d5b87828801612a82565b9350506040612d6c878288016129ff565b925050606085013567ffffffffffffffff811115612d8d57612d8c612697565b5b612d9987828801612cf4565b91505092959194509250565b60008060408385031215612dbc57612dbb612692565b5b6000612dca85828601612a82565b9250506020612ddb85828601612a82565b9150509250929050565b7f4e487b7100000000000000000000000000000000000000000000000000000000600052601160045260246000fd5b6000612e1f826127c4565b9150612e2a836127c4565b9250827fffffffffffffffffffffffffffffffffffffffffffffffffffffffffffffffff03821115612e5f57612e5e612de5565b5b828201905092915050565b6000612e75826127c4565b91507fffffffffffffffffffffffffffffffffffffffffffffffffffffffffffffffff8203612ea757612ea6612de5565b5b600182019050919050565b7f4e487b7100000000000000000000000000000000000000000000000000000000600052603260045260246000fd5b7f4e487b7100000000000000000000000000000000000000000000000000000000600052602260045260246000fd5b60006002820490506001821680612f2857607f821691505b602082108103612f3b57612f3a612ee1565b5b50919050565b7f4552433732313a20617070726f76616c20746f2063757272656e74206f776e6560008201527f7200000000000000000000000000000000000000000000000000000000000000602082015250565b6000612f9d602183612938565b9150612fa882612f41565b604082019050919050565b60006020820190508181036000830152612fcc81612f90565b9050919050565b7f4552433732313a20617070726f76652063616c6c6572206973206e6f7420746f60008201527f6b656e206f776e6572206f7220617070726f76656420666f7220616c6c000000602082015250565b600061302f603d83612938565b915061303a82612fd3565b604082019050919050565b6000602082019050818103600083015261305e81613022565b9050919050565b7f4552433732313a2063616c6c6572206973206e6f7420746f6b656e206f776e6560008201527f72206f7220617070726f76656400000000000000000000000000000000000000602082015250565b60006130c1602d83612938565b91506130cc82613065565b604082019050919050565b600060208201905081810360008301526130f0816130b4565b9050919050565b7f455243373231456e756d657261626c653a206f776e657220696e646578206f7560008201527f74206f6620626f756e6473000000000000000000000000000000000000000000602082015250565b6000613153602b83612938565b915061315e826130f7565b604082019050919050565b6000602082019050818103600083015261318281613146565b9050919050565b7f455243373231456e756d657261626c653a20676c6f62616c20696e646578206f60008201527f7574206f6620626f756e64730000000000000000000000000000000000000000602082015250565b60006131e5602c83612938565b91506131f082613189565b604082019050919050565b60006020820190508181036000830152613214816131d8565b9050919050565b7f4552433732313a20696e76616c696420746f6b656e2049440000000000000000600082015250565b6000613251601883612938565b915061325c8261321b565b602082019050919050565b6000602082019050818103600083015261328081613244565b9050919050565b7f4552433732313a2061646472657373207a65726f206973206e6f74206120766160008201527f6c6964206f776e65720000000000000000000000000000000000000000000000602082015250565b60006132e3602983612938565b91506132ee82613287565b604082019050919050565b60006020820190508181036000830152613312816132d6565b9050919050565b600081905092915050565b600061332f8261292d565b6133398185613319565b9350613349818560208601612949565b80840191505092915050565b60006133618285613324565b915061336d8284613324565b91508190509392505050565b6000613384826127c4565b91506000820361339757613396612de5565b5b600182039050919050565b7f4552433732313a207472616e736665722066726f6d20696e636f72726563742060008201527f6f776e6572000000000000000000000000000000000000000000000000000000602082015250565b60006133fe602583612938565b9150613409826133a2565b604082019050919050565b6000602082019050818103600083015261342d816133f1565b9050919050565b7f4552433732313a207472616e7366657220746f20746865207a65726f2061646460008201527f7265737300000000000000000000000000000000000000000000000000000000602082015250565b6000613490602483612938565b915061349b82613434565b604082019050919050565b600060208201905081810360008301526134bf81613483565b9050919050565b7f4552433732313a20617070726f766520746f2063616c6c657200000000000000600082015250565b60006134fc601983612938565b9150613507826134c6565b602082019050919050565b6000602082019050818103600083015261352b816134ef565b9050919050565b7f4552433732313a207472616e7366657220746f206e6f6e20455243373231526560008201527f63656976657220696d706c656d656e7465720000000000000000000000000000602082015250565b600061358e603283612938565b915061359982613532565b604082019050919050565b600060208201905081810360008301526135bd81613581565b9050919050565b7f4e487b7100000000000000000000000000000000000000000000000000000000600052601260045260246000fd5b7f455243373231456e756d657261626c653a20636f6e736563757469766520747260008201527f616e7366657273206e6f7420737570706f727465640000000000000000000000602082015250565b600061364f603583612938565b915061365a826135f3565b604082019050919050565b6000602082019050818103600083015261367e81613642565b9050919050565b600081519050919050565b600082825260208201905092915050565b60006136ac82613685565b6136b68185613690565b93506136c6818560208601612949565b6136cf8161297c565b840191505092915050565b60006080820190506136ef6000830187612a41565b6136fc6020830186612a41565b6137096040830185612ad7565b818103606083015261371b81846136a1565b905095945050505050565b600081519050613735816126c8565b92915050565b60006020828403121561375157613750612692565b5b600061375f84828501613726565b91505092915050565b7f4552433732313a206d696e7420746f20746865207a65726f2061646472657373600082015250565b600061379e602083612938565b91506137a982613768565b602082019050919050565b600060208201905081810360008301526137cd81613791565b9050919050565b7f4552433732313a20746f6b656e20616c7265616479206d696e74656400000000600082015250565b600061380a601c83612938565b9150613815826137d4565b602082019050919050565b60006020820190508181036000830152613839816137fd565b9050919050565b600061384b826127c4565b9150613856836127c4565b92508282101561386957613868612de5565b5b828203905092915050565b7f4e487b7100000000000000000000000000000000000000000000000000000000600052603160045260246000fdfea26469706673582212207a5009977bd78b89e3ccd577e28e8e29d4a63410291e4ae6a88f322b0b3668b664736f6c634300080d0033",
  "linkReferences": {},
  "deployedLinkReferences": {}
}