{
  "_format": "hh-sol-artifact-1",
  "contractName": "Token_Factory",
  "sourceName": "contracts/Token_Factory.sol",
  "abi": [
    {
      "inputs": [
        {
          "internalType": "uint256",
          "name": "_totalSupply",
          "type": "uint256"
        },
        {
          "internalType": "string",
          "name": "_tokenName",
          "type": "string"
        },
        {
          "internalType": "uint8",
          "name": "_decimalUnits",
          "type": "uint8"
        },
        {
          "internalType": "string",
          "name": "_tokenSymbol",
          "type": "string"
        }
      ],
      "stateMutability": "nonpayable",
      "type": "constructor"
    },
    {
      "anonymous": false,
      "inputs": [
        {
          "indexed": true,
          "internalType": "address",
          "name": "owner",
          "type": "address"
        },
        {
          "indexed": true,
          "internalType": "address",
          "name": "spender",
          "type": "address"
        },
        {
          "indexed": false,
          "internalType": "uint256",
          "name": "value",
          "type": "uint256"
        }
      ],
      "name": "Approval",
      "type": "event"
    },
    {
      "anonymous": false,
      "inputs": [
        {
          "indexed": true,
          "internalType": "address",
          "name": "previousOwner",
          "type": "address"
        },
        {
          "indexed": true,
          "internalType": "address",
          "name": "newOwner",
          "type": "address"
        }
      ],
      "name": "OwnershipTransferred",
      "type": "event"
    },
    {
      "anonymous": false,
      "inputs": [
        {
          "indexed": true,
          "internalType": "address",
          "name": "from",
          "type": "address"
        },
        {
          "indexed": true,
          "internalType": "address",
          "name": "to",
          "type": "address"
        },
        {
          "indexed": false,
          "internalType": "uint256",
          "name": "value",
          "type": "uint256"
        }
      ],
      "name": "Transfer",
      "type": "event"
    },
    {
      "inputs": [],
      "name": "Intialized",
      "outputs": [
        {
          "internalType": "bool",
          "name": "",
          "type": "bool"
        }
      ],
      "stateMutability": "view",
      "type": "function"
    },
    {
      "inputs": [
        {
          "internalType": "address",
          "name": "",
          "type": "address"
        },
        {
          "internalType": "address",
          "name": "",
          "type": "address"
        }
      ],
      "name": "allowance",
      "outputs": [
        {
          "internalType": "uint256",
          "name": "",
          "type": "uint256"
        }
      ],
      "stateMutability": "view",
      "type": "function"
    },
    {
      "inputs": [
        {
          "internalType": "address",
          "name": "spender",
          "type": "address"
        },
        {
          "internalType": "uint256",
          "name": "amount",
          "type": "uint256"
        }
      ],
      "name": "approve",
      "outputs": [
        {
          "internalType": "bool",
          "name": "",
          "type": "bool"
        }
      ],
      "stateMutability": "nonpayable",
      "type": "function"
    },
    {
      "inputs": [
        {
          "internalType": "address",
          "name": "",
          "type": "address"
        }
      ],
      "name": "balanceOf",
      "outputs": [
        {
          "internalType": "uint256",
          "name": "",
          "type": "uint256"
        }
      ],
      "stateMutability": "view",
      "type": "function"
    },
    {
      "inputs": [
        {
          "internalType": "uint256",
          "name": "amount",
          "type": "uint256"
        }
      ],
      "name": "burn",
      "outputs": [],
      "stateMutability": "nonpayable",
      "type": "function"
    },
    {
      "inputs": [],
      "name": "decimals",
      "outputs": [
        {
          "internalType": "uint8",
          "name": "",
          "type": "uint8"
        }
      ],
      "stateMutability": "view",
      "type": "function"
    },
    {
      "inputs": [],
      "name": "isOwner",
      "outputs": [
        {
          "internalType": "bool",
          "name": "",
          "type": "bool"
        }
      ],
      "stateMutability": "view",
      "type": "function"
    },
    {
      "inputs": [
        {
          "internalType": "uint256",
          "name": "amount",
          "type": "uint256"
        }
      ],
      "name": "mint",
      "outputs": [],
      "stateMutability": "nonpayable",
      "type": "function"
    },
    {
      "inputs": [],
      "name": "name",
      "outputs": [
        {
          "internalType": "string",
          "name": "",
          "type": "string"
        }
      ],
      "stateMutability": "view",
      "type": "function"
    },
    {
      "inputs": [],
      "name": "symbol",
      "outputs": [
        {
          "internalType": "string",
          "name": "",
          "type": "string"
        }
      ],
      "stateMutability": "view",
      "type": "function"
    },
    {
      "inputs": [],
      "name": "totalSupply",
      "outputs": [
        {
          "internalType": "uint256",
          "name": "",
          "type": "uint256"
        }
      ],
      "stateMutability": "view",
      "type": "function"
    },
    {
      "inputs": [
        {
          "internalType": "address",
          "name": "recipient",
          "type": "address"
        },
        {
          "internalType": "uint256",
          "name": "amount",
          "type": "uint256"
        }
      ],
      "name": "transfer",
      "outputs": [
        {
          "internalType": "bool",
          "name": "",
          "type": "bool"
        }
      ],
      "stateMutability": "nonpayable",
      "type": "function"
    },
    {
      "inputs": [
        {
          "internalType": "address",
          "name": "spender",
          "type": "address"
        },
        {
          "internalType": "address",
          "name": "recipient",
          "type": "address"
        },
        {
          "internalType": "uint256",
          "name": "amount",
          "type": "uint256"
        }
      ],
      "name": "transferFrom",
      "outputs": [
        {
          "internalType": "bool",
          "name": "",
          "type": "bool"
        }
      ],
      "stateMutability": "nonpayable",
      "type": "function"
    },
    {
      "inputs": [
        {
          "internalType": "address",
          "name": "",
          "type": "address"
        }
      ],
      "name": "votingPower",
      "outputs": [
        {
          "internalType": "uint256",
          "name": "",
          "type": "uint256"
        }
      ],
      "stateMutability": "view",
      "type": "function"
    }
  ],
  "bytecode": "0x60806040526000600660016101000a81548160ff0219169083151502179055503480156200002c57600080fd5b50604051620018593803806200185983398181016040528101906200005291906200053f565b80600590805190602001906200006a92919062000279565b5082600490805190602001906200008392919062000279565b5081600660006101000a81548160ff021916908360ff1602179055508360008190555083600160003373ffffffffffffffffffffffffffffffffffffffff1673ffffffffffffffffffffffffffffffffffffffff1681526020019081526020016000208190555083600360003373ffffffffffffffffffffffffffffffffffffffff1673ffffffffffffffffffffffffffffffffffffffff168152602001908152602001600020819055506001600660016101000a81548160ff02191690831515021790555033600660026101000a81548173ffffffffffffffffffffffffffffffffffffffff021916908373ffffffffffffffffffffffffffffffffffffffff1602179055503373ffffffffffffffffffffffffffffffffffffffff16600073ffffffffffffffffffffffffffffffffffffffff167fddf252ad1be2c89b69c2b068fc378daa952ba7f163c4a11628f55a4df523b3ef86604051620001ea919062000600565b60405180910390a3600660029054906101000a900473ffffffffffffffffffffffffffffffffffffffff1673ffffffffffffffffffffffffffffffffffffffff16600073ffffffffffffffffffffffffffffffffffffffff167f8be0079c531659141344cd1fd0a4f28419497f9722a3daafe3b4186f6b6457e060405160405180910390a35050505062000681565b82805462000287906200064c565b90600052602060002090601f016020900481019282620002ab5760008555620002f7565b82601f10620002c657805160ff1916838001178555620002f7565b82800160010185558215620002f7579182015b82811115620002f6578251825591602001919060010190620002d9565b5b5090506200030691906200030a565b5090565b5b80821115620003255760008160009055506001016200030b565b5090565b6000604051905090565b600080fd5b600080fd5b6000819050919050565b62000352816200033d565b81146200035e57600080fd5b50565b600081519050620003728162000347565b92915050565b600080fd5b600080fd5b6000601f19601f8301169050919050565b7f4e487b7100000000000000000000000000000000000000000000000000000000600052604160045260246000fd5b620003cd8262000382565b810181811067ffffffffffffffff82111715620003ef57620003ee62000393565b5b80604052505050565b60006200040462000329565b9050620004128282620003c2565b919050565b600067ffffffffffffffff82111562000435576200043462000393565b5b620004408262000382565b9050602081019050919050565b60005b838110156200046d57808201518184015260208101905062000450565b838111156200047d576000848401525b50505050565b60006200049a620004948462000417565b620003f8565b905082815260208101848484011115620004b957620004b86200037d565b5b620004c68482856200044d565b509392505050565b600082601f830112620004e657620004e562000378565b5b8151620004f884826020860162000483565b91505092915050565b600060ff82169050919050565b620005198162000501565b81146200052557600080fd5b50565b60008151905062000539816200050e565b92915050565b600080600080608085870312156200055c576200055b62000333565b5b60006200056c8782880162000361565b945050602085015167ffffffffffffffff81111562000590576200058f62000338565b5b6200059e87828801620004ce565b9350506040620005b18782880162000528565b925050606085015167ffffffffffffffff811115620005d557620005d462000338565b5b620005e387828801620004ce565b91505092959194509250565b620005fa816200033d565b82525050565b6000602082019050620006176000830184620005ef565b92915050565b7f4e487b7100000000000000000000000000000000000000000000000000000000600052602260045260246000fd5b600060028204905060018216806200066557607f821691505b6020821081036200067b576200067a6200061d565b5b50919050565b6111c880620006916000396000f3fe608060405234801561001057600080fd5b50600436106100ea5760003560e01c80638f32d59b1161008c578063a9059cbb11610066578063a9059cbb1461024d578063c07473f61461027d578063cc055a31146102ad578063dd62ed3e146102cb576100ea565b80638f32d59b146101f557806395d89b4114610213578063a0712d6814610231576100ea565b806323b872dd116100c857806323b872dd1461015b578063313ce5671461018b57806342966c68146101a957806370a08231146101c5576100ea565b806306fdde03146100ef578063095ea7b31461010d57806318160ddd1461013d575b600080fd5b6100f76102fb565b6040516101049190610d8e565b60405180910390f35b61012760048036038101906101229190610e49565b610389565b6040516101349190610ea4565b60405180910390f35b61014561047b565b6040516101529190610ece565b60405180910390f35b61017560048036038101906101709190610ee9565b610481565b6040516101829190610ea4565b60405180910390f35b6101936106cd565b6040516101a09190610f58565b60405180910390f35b6101c360048036038101906101be9190610f73565b6106e0565b005b6101df60048036038101906101da9190610fa0565b61081e565b6040516101ec9190610ece565b60405180910390f35b6101fd610836565b60405161020a9190610ea4565b60405180910390f35b61021b61088e565b6040516102289190610d8e565b60405180910390f35b61024b60048036038101906102469190610f73565b61091c565b005b61026760048036038101906102629190610e49565b610a5a565b6040516102749190610ea4565b60405180910390f35b61029760048036038101906102929190610fa0565b610ca5565b6040516102a49190610ece565b60405180910390f35b6102b5610cbd565b6040516102c29190610ea4565b60405180910390f35b6102e560048036038101906102e09190610fcd565b610cd0565b6040516102f29190610ece565b60405180910390f35b600480546103089061103c565b80601f01602080910402602001604051908101604052809291908181526020018280546103349061103c565b80156103815780601f1061035657610100808354040283529160200191610381565b820191906000526020600020905b81548152906001019060200180831161036457829003601f168201915b505050505081565b600081600260003373ffffffffffffffffffffffffffffffffffffffff1673ffffffffffffffffffffffffffffffffffffffff16815260200190815260200160002060008573ffffffffffffffffffffffffffffffffffffffff1673ffffffffffffffffffffffffffffffffffffffff168152602001908152602001600020819055508273ffffffffffffffffffffffffffffffffffffffff163373ffffffffffffffffffffffffffffffffffffffff167f8c5be1e5ebec7d5bd14f71427d1e84f3dd0314c0f7b2291e5b200ac8c7c3b925846040516104699190610ece565b60405180910390a36001905092915050565b60005481565b600081600160008673ffffffffffffffffffffffffffffffffffffffff1673ffffffffffffffffffffffffffffffffffffffff168152602001908152602001600020541015610505576040517f08c379a00000000000000000000000000000000000000000000000000000000081526004016104fc906110b9565b60405180910390fd5b81600160008673ffffffffffffffffffffffffffffffffffffffff1673ffffffffffffffffffffffffffffffffffffffff16815260200190815260200160002060008282546105549190611108565b9250508190555081600160008573ffffffffffffffffffffffffffffffffffffffff1673ffffffffffffffffffffffffffffffffffffffff16815260200190815260200160002060008282546105aa919061113c565b9250508190555081600360008673ffffffffffffffffffffffffffffffffffffffff1673ffffffffffffffffffffffffffffffffffffffff16815260200190815260200160002060008282546106009190611108565b9250508190555081600360008573ffffffffffffffffffffffffffffffffffffffff1673ffffffffffffffffffffffffffffffffffffffff1681526020019081526020016000206000828254610656919061113c565b925050819055508273ffffffffffffffffffffffffffffffffffffffff168473ffffffffffffffffffffffffffffffffffffffff167fddf252ad1be2c89b69c2b068fc378daa952ba7f163c4a11628f55a4df523b3ef846040516106ba9190610ece565b60405180910390a3600190509392505050565b600660009054906101000a900460ff1681565b6106e8610836565b6106f157600080fd5b80600160003373ffffffffffffffffffffffffffffffffffffffff1673ffffffffffffffffffffffffffffffffffffffff16815260200190815260200160002060008282546107409190611108565b9250508190555080600360003373ffffffffffffffffffffffffffffffffffffffff1673ffffffffffffffffffffffffffffffffffffffff16815260200190815260200160002060008282546107969190611108565b92505081905550806000808282546107ae9190611108565b92505081905550600073ffffffffffffffffffffffffffffffffffffffff163373ffffffffffffffffffffffffffffffffffffffff167fddf252ad1be2c89b69c2b068fc378daa952ba7f163c4a11628f55a4df523b3ef836040516108139190610ece565b60405180910390a350565b60016020528060005260406000206000915090505481565b6000600660029054906101000a900473ffffffffffffffffffffffffffffffffffffffff1673ffffffffffffffffffffffffffffffffffffffff163373ffffffffffffffffffffffffffffffffffffffff1614905090565b6005805461089b9061103c565b80601f01602080910402602001604051908101604052809291908181526020018280546108c79061103c565b80156109145780601f106108e957610100808354040283529160200191610914565b820191906000526020600020905b8154815290600101906020018083116108f757829003601f168201915b505050505081565b610924610836565b61092d57600080fd5b80600160003373ffffffffffffffffffffffffffffffffffffffff1673ffffffffffffffffffffffffffffffffffffffff168152602001908152602001600020600082825461097c919061113c565b9250508190555080600360003373ffffffffffffffffffffffffffffffffffffffff1673ffffffffffffffffffffffffffffffffffffffff16815260200190815260200160002060008282546109d2919061113c565b92505081905550806000808282546109ea919061113c565b925050819055503373ffffffffffffffffffffffffffffffffffffffff16600073ffffffffffffffffffffffffffffffffffffffff167fddf252ad1be2c89b69c2b068fc378daa952ba7f163c4a11628f55a4df523b3ef83604051610a4f9190610ece565b60405180910390a350565b600081600160003373ffffffffffffffffffffffffffffffffffffffff1673ffffffffffffffffffffffffffffffffffffffff168152602001908152602001600020541015610ade576040517f08c379a0000000000000000000000000000000000000000000000000000000008152600401610ad5906110b9565b60405180910390fd5b81600160003373ffffffffffffffffffffffffffffffffffffffff1673ffffffffffffffffffffffffffffffffffffffff1681526020019081526020016000206000828254610b2d9190611108565b9250508190555081600160008573ffffffffffffffffffffffffffffffffffffffff1673ffffffffffffffffffffffffffffffffffffffff1681526020019081526020016000206000828254610b83919061113c565b9250508190555081600360003373ffffffffffffffffffffffffffffffffffffffff1673ffffffffffffffffffffffffffffffffffffffff1681526020019081526020016000206000828254610bd99190611108565b9250508190555081600360008573ffffffffffffffffffffffffffffffffffffffff1673ffffffffffffffffffffffffffffffffffffffff1681526020019081526020016000206000828254610c2f919061113c565b925050819055508273ffffffffffffffffffffffffffffffffffffffff163373ffffffffffffffffffffffffffffffffffffffff167fddf252ad1be2c89b69c2b068fc378daa952ba7f163c4a11628f55a4df523b3ef84604051610c939190610ece565b60405180910390a36001905092915050565b60036020528060005260406000206000915090505481565b600660019054906101000a900460ff1681565b6002602052816000526040600020602052806000526040600020600091509150505481565b600081519050919050565b600082825260208201905092915050565b60005b83811015610d2f578082015181840152602081019050610d14565b83811115610d3e576000848401525b50505050565b6000601f19601f8301169050919050565b6000610d6082610cf5565b610d6a8185610d00565b9350610d7a818560208601610d11565b610d8381610d44565b840191505092915050565b60006020820190508181036000830152610da88184610d55565b905092915050565b600080fd5b600073ffffffffffffffffffffffffffffffffffffffff82169050919050565b6000610de082610db5565b9050919050565b610df081610dd5565b8114610dfb57600080fd5b50565b600081359050610e0d81610de7565b92915050565b6000819050919050565b610e2681610e13565b8114610e3157600080fd5b50565b600081359050610e4381610e1d565b92915050565b60008060408385031215610e6057610e5f610db0565b5b6000610e6e85828601610dfe565b9250506020610e7f85828601610e34565b9150509250929050565b60008115159050919050565b610e9e81610e89565b82525050565b6000602082019050610eb96000830184610e95565b92915050565b610ec881610e13565b82525050565b6000602082019050610ee36000830184610ebf565b92915050565b600080600060608486031215610f0257610f01610db0565b5b6000610f1086828701610dfe565b9350506020610f2186828701610dfe565b9250506040610f3286828701610e34565b9150509250925092565b600060ff82169050919050565b610f5281610f3c565b82525050565b6000602082019050610f6d6000830184610f49565b92915050565b600060208284031215610f8957610f88610db0565b5b6000610f9784828501610e34565b91505092915050565b600060208284031215610fb657610fb5610db0565b5b6000610fc484828501610dfe565b91505092915050565b60008060408385031215610fe457610fe3610db0565b5b6000610ff285828601610dfe565b925050602061100385828601610dfe565b9150509250929050565b7f4e487b7100000000000000000000000000000000000000000000000000000000600052602260045260246000fd5b6000600282049050600182168061105457607f821691505b6020821081036110675761106661100d565b5b50919050565b7f4e6f7420656e6f7567682042616c616e63650000000000000000000000000000600082015250565b60006110a3601283610d00565b91506110ae8261106d565b602082019050919050565b600060208201905081810360008301526110d281611096565b9050919050565b7f4e487b7100000000000000000000000000000000000000000000000000000000600052601160045260246000fd5b600061111382610e13565b915061111e83610e13565b925082821015611131576111306110d9565b5b828203905092915050565b600061114782610e13565b915061115283610e13565b9250827fffffffffffffffffffffffffffffffffffffffffffffffffffffffffffffffff03821115611187576111866110d9565b5b82820190509291505056fea2646970667358221220f8913b4532854138be74ee5c0fa475d0f424cc26753ec88f994f92e065f5603664736f6c634300080d0033",
  "linkReferences": {},
  "deployedLinkReferences": {}
}