{
  "_format": "hh-sol-artifact-1",
  "contractName": "One_to_one_Voting",
  "sourceName": "contracts/Voting.sol",
  "abi": [
    {
      "inputs": [
        {
          "internalType": "address",
          "name": "Membership_Abstraction_contract",
          "type": "address"
        }
      ],
      "stateMutability": "nonpayable",
      "type": "constructor"
    },
    {
      "anonymous": false,
      "inputs": [
        {
          "indexed": false,
          "internalType": "uint256",
          "name": "proposal_id",
          "type": "uint256"
        }
      ],
      "name": "CreatedProposalEvent",
      "type": "event"
    },
    {
      "anonymous": false,
      "inputs": [],
      "name": "CreatedVoteEvent",
      "type": "event"
    },
    {
      "inputs": [],
      "name": "ProposalCount",
      "outputs": [
        {
          "internalType": "uint256",
          "name": "",
          "type": "uint256"
        }
      ],
      "stateMutability": "view",
      "type": "function"
    },
    {
      "inputs": [
        {
          "internalType": "bytes32",
          "name": "title",
          "type": "bytes32"
        },
        {
          "internalType": "string",
          "name": "description",
          "type": "string"
        }
      ],
      "name": "addProposal",
      "outputs": [
        {
          "internalType": "bool",
          "name": "",
          "type": "bool"
        }
      ],
      "stateMutability": "nonpayable",
      "type": "function"
    },
    {
      "inputs": [
        {
          "internalType": "uint256",
          "name": "proposal_id",
          "type": "uint256"
        }
      ],
      "name": "getProposal",
      "outputs": [
        {
          "internalType": "uint256",
          "name": "",
          "type": "uint256"
        },
        {
          "internalType": "uint256",
          "name": "",
          "type": "uint256"
        },
        {
          "internalType": "uint256",
          "name": "",
          "type": "uint256"
        },
        {
          "internalType": "address[]",
          "name": "",
          "type": "address[]"
        }
      ],
      "stateMutability": "view",
      "type": "function"
    },
    {
      "inputs": [
        {
          "internalType": "uint256",
          "name": "",
          "type": "uint256"
        }
      ],
      "name": "proposals",
      "outputs": [
        {
          "internalType": "bytes32",
          "name": "title",
          "type": "bytes32"
        },
        {
          "internalType": "uint256",
          "name": "proposal_id",
          "type": "uint256"
        },
        {
          "internalType": "uint256",
          "name": "voteCountPos",
          "type": "uint256"
        },
        {
          "internalType": "uint256",
          "name": "voteCountNeg",
          "type": "uint256"
        },
        {
          "internalType": "uint256",
          "name": "voteCountAbs",
          "type": "uint256"
        },
        {
          "internalType": "string",
          "name": "description",
          "type": "string"
        }
      ],
      "stateMutability": "view",
      "type": "function"
    },
    {
      "inputs": [
        {
          "internalType": "uint256",
          "name": "proposal_id",
          "type": "uint256"
        },
        {
          "internalType": "uint256",
          "name": "voteValue",
          "type": "uint256"
        }
      ],
      "name": "vote",
      "outputs": [
        {
          "internalType": "bool",
          "name": "",
          "type": "bool"
        }
      ],
      "stateMutability": "nonpayable",
      "type": "function"
    }
  ],
  "bytecode": "0x6080604052600060025534801561001557600080fd5b50604051610dd8380380610dd8833981810160405281019061003791906100e0565b806000806101000a81548173ffffffffffffffffffffffffffffffffffffffff021916908373ffffffffffffffffffffffffffffffffffffffff1602179055505061010d565b600080fd5b600073ffffffffffffffffffffffffffffffffffffffff82169050919050565b60006100ad82610082565b9050919050565b6100bd816100a2565b81146100c857600080fd5b50565b6000815190506100da816100b4565b92915050565b6000602082840312156100f6576100f561007d565b5b6000610104848285016100cb565b91505092915050565b610cbc8061011c6000396000f3fe608060405234801561001057600080fd5b50600436106100575760003560e01c8063013cf08b1461005c57806328e37c1914610091578063b384abef146100c1578063be747c1c146100f1578063c7f758a81461010f575b600080fd5b610076600480360381019061007191906105f7565b610142565b604051610088969594939291906106e5565b60405180910390f35b6100ab60048036038101906100a691906108ae565b610206565b6040516100b89190610925565b60405180910390f35b6100db60048036038101906100d69190610940565b6102aa565b6040516100e89190610925565b60405180910390f35b6100f961043b565b6040516101069190610980565b60405180910390f35b610129600480360381019061012491906105f7565b610441565b6040516101399493929190610a8b565b60405180910390f35b600160205280600052604060002060009150905080600001549080600101549080600201549080600301549080600401549080600501805461018390610b06565b80601f01602080910402602001604051908101604052809291908181526020018280546101af90610b06565b80156101fc5780601f106101d1576101008083540402835291602001916101fc565b820191906000526020600020905b8154815290600101906020018083116101df57829003601f168201915b5050505050905086565b60006002600081548092919061021b90610b66565b91905055506000600160006002548152602001908152602001600020905060025481600101819055508381600001819055508281600501908051906020019061026592919061050a565b507fb1693c56fda376307d08ede30d49a756cd215c2ef7e83e081549da0de86e95f56002546040516102979190610980565b60405180910390a1600191505092915050565b60008160008054906101000a900473ffffffffffffffffffffffffffffffffffffffff1673ffffffffffffffffffffffffffffffffffffffff1663c07473f6336040518263ffffffff1660e01b81526004016103069190610bbd565b602060405180830381865afa158015610323573d6000803e3d6000fd5b505050506040513d601f19601f820116820180604052508101906103479190610bed565b1015610388576040517f08c379a000000000000000000000000000000000000000000000000000000000815260040161037f90610c66565b60405180910390fd5b600060016000858152602001908152602001600020905080600701339080600181540180825580915050600190039060005260206000200160009091909190916101000a81548173ffffffffffffffffffffffffffffffffffffffff021916908373ffffffffffffffffffffffffffffffffffffffff1602179055507fc8d0f117c265f186f11ddd2b492c5183055634fe9b702704eb82c0fe0466364460405160405180910390a1600191505092915050565b60025481565b60008060006060600060016000878152602001908152602001600020905080600201548160030154826004015483600701808054806020026020016040519081016040528092919081815260200182805480156104f357602002820191906000526020600020905b8160009054906101000a900473ffffffffffffffffffffffffffffffffffffffff1673ffffffffffffffffffffffffffffffffffffffff16815260200190600101908083116104a9575b505050505090509450945094509450509193509193565b82805461051690610b06565b90600052602060002090601f016020900481019282610538576000855561057f565b82601f1061055157805160ff191683800117855561057f565b8280016001018555821561057f579182015b8281111561057e578251825591602001919060010190610563565b5b50905061058c9190610590565b5090565b5b808211156105a9576000816000905550600101610591565b5090565b6000604051905090565b600080fd5b600080fd5b6000819050919050565b6105d4816105c1565b81146105df57600080fd5b50565b6000813590506105f1816105cb565b92915050565b60006020828403121561060d5761060c6105b7565b5b600061061b848285016105e2565b91505092915050565b6000819050919050565b61063781610624565b82525050565b610646816105c1565b82525050565b600081519050919050565b600082825260208201905092915050565b60005b8381101561068657808201518184015260208101905061066b565b83811115610695576000848401525b50505050565b6000601f19601f8301169050919050565b60006106b78261064c565b6106c18185610657565b93506106d1818560208601610668565b6106da8161069b565b840191505092915050565b600060c0820190506106fa600083018961062e565b610707602083018861063d565b610714604083018761063d565b610721606083018661063d565b61072e608083018561063d565b81810360a083015261074081846106ac565b9050979650505050505050565b61075681610624565b811461076157600080fd5b50565b6000813590506107738161074d565b92915050565b600080fd5b600080fd5b7f4e487b7100000000000000000000000000000000000000000000000000000000600052604160045260246000fd5b6107bb8261069b565b810181811067ffffffffffffffff821117156107da576107d9610783565b5b80604052505050565b60006107ed6105ad565b90506107f982826107b2565b919050565b600067ffffffffffffffff82111561081957610818610783565b5b6108228261069b565b9050602081019050919050565b82818337600083830152505050565b600061085161084c846107fe565b6107e3565b90508281526020810184848401111561086d5761086c61077e565b5b61087884828561082f565b509392505050565b600082601f83011261089557610894610779565b5b81356108a584826020860161083e565b91505092915050565b600080604083850312156108c5576108c46105b7565b5b60006108d385828601610764565b925050602083013567ffffffffffffffff8111156108f4576108f36105bc565b5b61090085828601610880565b9150509250929050565b60008115159050919050565b61091f8161090a565b82525050565b600060208201905061093a6000830184610916565b92915050565b60008060408385031215610957576109566105b7565b5b6000610965858286016105e2565b9250506020610976858286016105e2565b9150509250929050565b6000602082019050610995600083018461063d565b92915050565b600081519050919050565b600082825260208201905092915050565b6000819050602082019050919050565b600073ffffffffffffffffffffffffffffffffffffffff82169050919050565b60006109f2826109c7565b9050919050565b610a02816109e7565b82525050565b6000610a1483836109f9565b60208301905092915050565b6000602082019050919050565b6000610a388261099b565b610a4281856109a6565b9350610a4d836109b7565b8060005b83811015610a7e578151610a658882610a08565b9750610a7083610a20565b925050600181019050610a51565b5085935050505092915050565b6000608082019050610aa0600083018761063d565b610aad602083018661063d565b610aba604083018561063d565b8181036060830152610acc8184610a2d565b905095945050505050565b7f4e487b7100000000000000000000000000000000000000000000000000000000600052602260045260246000fd5b60006002820490506001821680610b1e57607f821691505b602082108103610b3157610b30610ad7565b5b50919050565b7f4e487b7100000000000000000000000000000000000000000000000000000000600052601160045260246000fd5b6000610b71826105c1565b91507fffffffffffffffffffffffffffffffffffffffffffffffffffffffffffffffff8203610ba357610ba2610b37565b5b600182019050919050565b610bb7816109e7565b82525050565b6000602082019050610bd26000830184610bae565b92915050565b600081519050610be7816105cb565b92915050565b600060208284031215610c0357610c026105b7565b5b6000610c1184828501610bd8565b91505092915050565b7f4e6f7420456e6f7567682042616c616e636520746f20566f7465000000000000600082015250565b6000610c50601a83610657565b9150610c5b82610c1a565b602082019050919050565b60006020820190508181036000830152610c7f81610c43565b905091905056fea26469706673582212204af32112377c176c589821574cbeeed30cdd8e25fee084206f15446bac1dc69264736f6c634300080d0033",
  "linkReferences": {},
  "deployedLinkReferences": {}
}