{
  "_format": "hh-sol-artifact-1",
  "contractName": "One_to_one_Voting",
  "sourceName": "contracts/Voting.sol",
  "abi": [
    {
      "inputs": [
        {
          "internalType": "address",
          "name": "Membership_Abstraction_contract",
          "type": "address"
        },
        {
          "internalType": "uint256",
          "name": "_voteValue",
          "type": "uint256"
        }
      ],
      "stateMutability": "nonpayable",
      "type": "constructor"
    },
    {
      "anonymous": false,
      "inputs": [
        {
          "indexed": false,
          "internalType": "uint256",
          "name": "proposal_id",
          "type": "uint256"
        }
      ],
      "name": "CreatedProposalEvent",
      "type": "event"
    },
    {
      "anonymous": false,
      "inputs": [],
      "name": "CreatedVoteEvent",
      "type": "event"
    },
    {
      "inputs": [],
      "name": "Get_Voting_Power",
      "outputs": [
        {
          "internalType": "uint256",
          "name": "",
          "type": "uint256"
        }
      ],
      "stateMutability": "view",
      "type": "function"
    },
    {
      "inputs": [],
      "name": "ProposalCount",
      "outputs": [
        {
          "internalType": "uint256",
          "name": "",
          "type": "uint256"
        }
      ],
      "stateMutability": "view",
      "type": "function"
    },
    {
      "inputs": [
        {
          "internalType": "bytes32",
          "name": "title",
          "type": "bytes32"
        },
        {
          "internalType": "string",
          "name": "description",
          "type": "string"
        }
      ],
      "name": "addProposal",
      "outputs": [
        {
          "internalType": "bool",
          "name": "",
          "type": "bool"
        }
      ],
      "stateMutability": "nonpayable",
      "type": "function"
    },
    {
      "inputs": [
        {
          "internalType": "uint256",
          "name": "proposal_id",
          "type": "uint256"
        }
      ],
      "name": "getProposal",
      "outputs": [
        {
          "internalType": "uint256",
          "name": "",
          "type": "uint256"
        },
        {
          "internalType": "uint256",
          "name": "",
          "type": "uint256"
        },
        {
          "internalType": "uint256",
          "name": "",
          "type": "uint256"
        },
        {
          "internalType": "address[]",
          "name": "",
          "type": "address[]"
        }
      ],
      "stateMutability": "view",
      "type": "function"
    },
    {
      "inputs": [
        {
          "internalType": "uint256",
          "name": "",
          "type": "uint256"
        }
      ],
      "name": "proposals",
      "outputs": [
        {
          "internalType": "bytes32",
          "name": "title",
          "type": "bytes32"
        },
        {
          "internalType": "uint256",
          "name": "proposal_id",
          "type": "uint256"
        },
        {
          "internalType": "uint256",
          "name": "voteCountPos",
          "type": "uint256"
        },
        {
          "internalType": "uint256",
          "name": "voteCountNeg",
          "type": "uint256"
        },
        {
          "internalType": "uint256",
          "name": "voteCountAbs",
          "type": "uint256"
        },
        {
          "internalType": "string",
          "name": "description",
          "type": "string"
        }
      ],
      "stateMutability": "view",
      "type": "function"
    },
    {
      "inputs": [
        {
          "internalType": "uint256",
          "name": "proposal_id",
          "type": "uint256"
        },
        {
          "internalType": "uint8",
          "name": "positive_Vote",
          "type": "uint8"
        }
      ],
      "name": "vote",
      "outputs": [
        {
          "internalType": "bool",
          "name": "",
          "type": "bool"
        }
      ],
      "stateMutability": "nonpayable",
      "type": "function"
    }
  ],
  "bytecode": "0x608060405260006003553480156200001657600080fd5b5060405162000fc838038062000fc883398181016040528101906200003c919062000131565b81600160006101000a81548173ffffffffffffffffffffffffffffffffffffffff021916908373ffffffffffffffffffffffffffffffffffffffff16021790555080600081905550505062000178565b600080fd5b600073ffffffffffffffffffffffffffffffffffffffff82169050919050565b6000620000be8262000091565b9050919050565b620000d081620000b1565b8114620000dc57600080fd5b50565b600081519050620000f081620000c5565b92915050565b6000819050919050565b6200010b81620000f6565b81146200011757600080fd5b50565b6000815190506200012b8162000100565b92915050565b600080604083850312156200014b576200014a6200008c565b5b60006200015b85828601620000df565b92505060206200016e858286016200011a565b9150509250929050565b610e4080620001886000396000f3fe608060405234801561001057600080fd5b50600436106100625760003560e01c8063013cf08b1461006757806328e37c191461009c57806330b1ab8d146100cc578063943e8216146100ea578063be747c1c1461011a578063c7f758a814610138575b600080fd5b610081600480360381019061007c9190610742565b61016b565b60405161009396959493929190610830565b60405180910390f35b6100b660048036038101906100b191906109f9565b61022f565b6040516100c39190610a70565b60405180910390f35b6100d46102d3565b6040516100e19190610a8b565b60405180910390f35b61010460048036038101906100ff9190610adf565b610376565b6040516101119190610a70565b60405180910390f35b610122610586565b60405161012f9190610a8b565b60405180910390f35b610152600480360381019061014d9190610742565b61058c565b6040516101629493929190610c0f565b60405180910390f35b60026020528060005260406000206000915090508060000154908060010154908060020154908060030154908060040154908060050180546101ac90610c8a565b80601f01602080910402602001604051908101604052809291908181526020018280546101d890610c8a565b80156102255780601f106101fa57610100808354040283529160200191610225565b820191906000526020600020905b81548152906001019060200180831161020857829003601f168201915b5050505050905086565b60006003600081548092919061024490610cea565b91905055506000600260006003548152602001908152602001600020905060035481600101819055508381600001819055508281600501908051906020019061028e929190610655565b507fb1693c56fda376307d08ede30d49a756cd215c2ef7e83e081549da0de86e95f56003546040516102c09190610a8b565b60405180910390a1600191505092915050565b6000600160009054906101000a900473ffffffffffffffffffffffffffffffffffffffff1673ffffffffffffffffffffffffffffffffffffffff1663c07473f6336040518263ffffffff1660e01b81526004016103309190610d41565b602060405180830381865afa15801561034d573d6000803e3d6000fd5b505050506040513d601f19601f820116820180604052508101906103719190610d71565b905090565b60008054600160009054906101000a900473ffffffffffffffffffffffffffffffffffffffff1673ffffffffffffffffffffffffffffffffffffffff1663c07473f6336040518263ffffffff1660e01b81526004016103d59190610d41565b602060405180830381865afa1580156103f2573d6000803e3d6000fd5b505050506040513d601f19601f820116820180604052508101906104169190610d71565b1015610457576040517f08c379a000000000000000000000000000000000000000000000000000000000815260040161044e90610dea565b60405180910390fd5b600060026000858152602001908152602001600020905080600701339080600181540180825580915050600190039060005260206000200160009091909190916101000a81548173ffffffffffffffffffffffffffffffffffffffff021916908373ffffffffffffffffffffffffffffffffffffffff16021790555060018360ff16036104fd578060020160008154809291906104f390610cea565b919050555061054f565b60028360ff16036105275780600301600081548092919061051d90610cea565b919050555061054e565b60008360ff160361054d5780600401600081548092919061054790610cea565b91905055505b5b5b7fc8d0f117c265f186f11ddd2b492c5183055634fe9b702704eb82c0fe0466364460405160405180910390a1600191505092915050565b60035481565b600080600060606000600260008781526020019081526020016000209050806002015481600301548260040154836007018080548060200260200160405190810160405280929190818152602001828054801561063e57602002820191906000526020600020905b8160009054906101000a900473ffffffffffffffffffffffffffffffffffffffff1673ffffffffffffffffffffffffffffffffffffffff16815260200190600101908083116105f4575b505050505090509450945094509450509193509193565b82805461066190610c8a565b90600052602060002090601f01602090048101928261068357600085556106ca565b82601f1061069c57805160ff19168380011785556106ca565b828001600101855582156106ca579182015b828111156106c95782518255916020019190600101906106ae565b5b5090506106d791906106db565b5090565b5b808211156106f45760008160009055506001016106dc565b5090565b6000604051905090565b600080fd5b600080fd5b6000819050919050565b61071f8161070c565b811461072a57600080fd5b50565b60008135905061073c81610716565b92915050565b60006020828403121561075857610757610702565b5b60006107668482850161072d565b91505092915050565b6000819050919050565b6107828161076f565b82525050565b6107918161070c565b82525050565b600081519050919050565b600082825260208201905092915050565b60005b838110156107d15780820151818401526020810190506107b6565b838111156107e0576000848401525b50505050565b6000601f19601f8301169050919050565b600061080282610797565b61080c81856107a2565b935061081c8185602086016107b3565b610825816107e6565b840191505092915050565b600060c0820190506108456000830189610779565b6108526020830188610788565b61085f6040830187610788565b61086c6060830186610788565b6108796080830185610788565b81810360a083015261088b81846107f7565b9050979650505050505050565b6108a18161076f565b81146108ac57600080fd5b50565b6000813590506108be81610898565b92915050565b600080fd5b600080fd5b7f4e487b7100000000000000000000000000000000000000000000000000000000600052604160045260246000fd5b610906826107e6565b810181811067ffffffffffffffff82111715610925576109246108ce565b5b80604052505050565b60006109386106f8565b905061094482826108fd565b919050565b600067ffffffffffffffff821115610964576109636108ce565b5b61096d826107e6565b9050602081019050919050565b82818337600083830152505050565b600061099c61099784610949565b61092e565b9050828152602081018484840111156109b8576109b76108c9565b5b6109c384828561097a565b509392505050565b600082601f8301126109e0576109df6108c4565b5b81356109f0848260208601610989565b91505092915050565b60008060408385031215610a1057610a0f610702565b5b6000610a1e858286016108af565b925050602083013567ffffffffffffffff811115610a3f57610a3e610707565b5b610a4b858286016109cb565b9150509250929050565b60008115159050919050565b610a6a81610a55565b82525050565b6000602082019050610a856000830184610a61565b92915050565b6000602082019050610aa06000830184610788565b92915050565b600060ff82169050919050565b610abc81610aa6565b8114610ac757600080fd5b50565b600081359050610ad981610ab3565b92915050565b60008060408385031215610af657610af5610702565b5b6000610b048582860161072d565b9250506020610b1585828601610aca565b9150509250929050565b600081519050919050565b600082825260208201905092915050565b6000819050602082019050919050565b600073ffffffffffffffffffffffffffffffffffffffff82169050919050565b6000610b7682610b4b565b9050919050565b610b8681610b6b565b82525050565b6000610b988383610b7d565b60208301905092915050565b6000602082019050919050565b6000610bbc82610b1f565b610bc68185610b2a565b9350610bd183610b3b565b8060005b83811015610c02578151610be98882610b8c565b9750610bf483610ba4565b925050600181019050610bd5565b5085935050505092915050565b6000608082019050610c246000830187610788565b610c316020830186610788565b610c3e6040830185610788565b8181036060830152610c508184610bb1565b905095945050505050565b7f4e487b7100000000000000000000000000000000000000000000000000000000600052602260045260246000fd5b60006002820490506001821680610ca257607f821691505b602082108103610cb557610cb4610c5b565b5b50919050565b7f4e487b7100000000000000000000000000000000000000000000000000000000600052601160045260246000fd5b6000610cf58261070c565b91507fffffffffffffffffffffffffffffffffffffffffffffffffffffffffffffffff8203610d2757610d26610cbb565b5b600182019050919050565b610d3b81610b6b565b82525050565b6000602082019050610d566000830184610d32565b92915050565b600081519050610d6b81610716565b92915050565b600060208284031215610d8757610d86610702565b5b6000610d9584828501610d5c565b91505092915050565b7f4e6f7420456e6f7567682042616c616e636520746f20566f7465000000000000600082015250565b6000610dd4601a836107a2565b9150610ddf82610d9e565b602082019050919050565b60006020820190508181036000830152610e0381610dc7565b905091905056fea2646970667358221220cdef53b67037b1b895da06d01e6ee85b5f3e96fcf300685271da7291e9aaf4ce64736f6c634300080d0033",
  "linkReferences": {},
  "deployedLinkReferences": {}
}