{
  "_format": "hh-sol-artifact-1",
  "contractName": "QuadraticVoting_Simple",
  "sourceName": "contracts/QuadraticVoting_Simple.sol",
  "abi": [
    {
      "inputs": [
        {
          "internalType": "address",
          "name": "Membership_Abstraction_contract",
          "type": "address"
        },
        {
          "internalType": "uint256",
          "name": "CostofVote",
          "type": "uint256"
        }
      ],
      "stateMutability": "nonpayable",
      "type": "constructor"
    },
    {
      "anonymous": false,
      "inputs": [
        {
          "indexed": false,
          "internalType": "uint256",
          "name": "itemId",
          "type": "uint256"
        }
      ],
      "name": "ItemCreated",
      "type": "event"
    },
    {
      "anonymous": false,
      "inputs": [
        {
          "indexed": false,
          "internalType": "uint256",
          "name": "itemId",
          "type": "uint256"
        },
        {
          "indexed": false,
          "internalType": "uint256",
          "name": "weight",
          "type": "uint256"
        },
        {
          "indexed": false,
          "internalType": "bool",
          "name": "positive",
          "type": "bool"
        }
      ],
      "name": "Voted",
      "type": "event"
    },
    {
      "inputs": [
        {
          "internalType": "uint256",
          "name": "currWeight",
          "type": "uint256"
        },
        {
          "internalType": "uint256",
          "name": "weight",
          "type": "uint256"
        }
      ],
      "name": "calcCost",
      "outputs": [
        {
          "internalType": "uint256",
          "name": "",
          "type": "uint256"
        }
      ],
      "stateMutability": "view",
      "type": "function"
    },
    {
      "inputs": [
        {
          "internalType": "uint256",
          "name": "itemId",
          "type": "uint256"
        }
      ],
      "name": "claim",
      "outputs": [],
      "stateMutability": "nonpayable",
      "type": "function"
    },
    {
      "inputs": [
        {
          "internalType": "bytes32",
          "name": "title",
          "type": "bytes32"
        },
        {
          "internalType": "string",
          "name": "imageHash",
          "type": "string"
        },
        {
          "internalType": "string",
          "name": "description",
          "type": "string"
        }
      ],
      "name": "createItem",
      "outputs": [],
      "stateMutability": "nonpayable",
      "type": "function"
    },
    {
      "inputs": [
        {
          "internalType": "uint256",
          "name": "itemId",
          "type": "uint256"
        },
        {
          "internalType": "address",
          "name": "addr",
          "type": "address"
        },
        {
          "internalType": "bool",
          "name": "isPositive",
          "type": "bool"
        }
      ],
      "name": "currentWeight",
      "outputs": [
        {
          "internalType": "uint256",
          "name": "",
          "type": "uint256"
        }
      ],
      "stateMutability": "view",
      "type": "function"
    },
    {
      "inputs": [],
      "name": "itemCount",
      "outputs": [
        {
          "internalType": "uint256",
          "name": "",
          "type": "uint256"
        }
      ],
      "stateMutability": "view",
      "type": "function"
    },
    {
      "inputs": [
        {
          "internalType": "uint256",
          "name": "",
          "type": "uint256"
        }
      ],
      "name": "items",
      "outputs": [
        {
          "internalType": "address payable",
          "name": "owner",
          "type": "address"
        },
        {
          "internalType": "uint256",
          "name": "amount",
          "type": "uint256"
        },
        {
          "internalType": "bytes32",
          "name": "title",
          "type": "bytes32"
        },
        {
          "internalType": "string",
          "name": "imageHash",
          "type": "string"
        },
        {
          "internalType": "string",
          "name": "description",
          "type": "string"
        },
        {
          "internalType": "uint256",
          "name": "totalPositiveWeight",
          "type": "uint256"
        },
        {
          "internalType": "uint256",
          "name": "totalNegativeWeight",
          "type": "uint256"
        }
      ],
      "stateMutability": "view",
      "type": "function"
    },
    {
      "inputs": [
        {
          "internalType": "uint256",
          "name": "itemId",
          "type": "uint256"
        },
        {
          "internalType": "uint256",
          "name": "weight",
          "type": "uint256"
        }
      ],
      "name": "negativeVote",
      "outputs": [],
      "stateMutability": "payable",
      "type": "function"
    },
    {
      "inputs": [
        {
          "internalType": "uint256",
          "name": "itemId",
          "type": "uint256"
        },
        {
          "internalType": "uint256",
          "name": "weight",
          "type": "uint256"
        }
      ],
      "name": "positiveVote",
      "outputs": [],
      "stateMutability": "payable",
      "type": "function"
    },
    {
      "inputs": [],
      "name": "voteCost",
      "outputs": [
        {
          "internalType": "uint256",
          "name": "",
          "type": "uint256"
        }
      ],
      "stateMutability": "view",
      "type": "function"
    }
  ],
  "bytecode": "0x608060405260006003553480156200001657600080fd5b5060405162001adb38038062001adb83398181016040528101906200003c919062000130565b816000806101000a81548173ffffffffffffffffffffffffffffffffffffffff021916908373ffffffffffffffffffffffffffffffffffffffff16021790555080600181905550505062000177565b600080fd5b600073ffffffffffffffffffffffffffffffffffffffff82169050919050565b6000620000bd8262000090565b9050919050565b620000cf81620000b0565b8114620000db57600080fd5b50565b600081519050620000ef81620000c4565b92915050565b6000819050919050565b6200010a81620000f5565b81146200011657600080fd5b50565b6000815190506200012a81620000ff565b92915050565b600080604083850312156200014a57620001496200008b565b5b60006200015a85828601620000de565b92505060206200016d8582860162000119565b9150509250929050565b61195480620001876000396000f3fe6080604052600436106100865760003560e01c80636984ef2a116100595780636984ef2a146101245780636bfb0d0114610140578063a5a13ddc1461016b578063bfb231d2146101a8578063d7921a5b146101eb57610086565b806302343bd41461008b578063379607f5146100b45780634c1b8ffd146100dd578063602ecffe14610108575b600080fd5b34801561009757600080fd5b506100b260048036038101906100ad919061111f565b610228565b005b3480156100c057600080fd5b506100db60048036038101906100d691906111e0565b610316565b005b3480156100e957600080fd5b506100f261043c565b6040516100ff919061121c565b60405180910390f35b610122600480360381019061011d9190611237565b610442565b005b61013e60048036038101906101399190611237565b610841565b005b34801561014c57600080fd5b50610155610c40565b604051610162919061121c565b60405180910390f35b34801561017757600080fd5b50610192600480360381019061018d9190611237565b610c46565b60405161019f919061121c565b60405180910390f35b3480156101b457600080fd5b506101cf60048036038101906101ca91906111e0565b610cb9565b6040516101e2979695949392919061134f565b60405180910390f35b3480156101f757600080fd5b50610212600480360381019061020d9190611442565b610e2b565b60405161021f919061121c565b60405180910390f35b60006003600081548092919061023d906114c4565b9190505590506000600260008381526020019081526020016000209050338160000160006101000a81548173ffffffffffffffffffffffffffffffffffffffff021916908373ffffffffffffffffffffffffffffffffffffffff160217905550848160020181905550838160030190805190602001906102be929190610eec565b50828160040190805190602001906102d7929190610eec565b507fa26a7a3d8c7ebb9fc47c7fdfd8af05a15da0ff8d51b883930669ed3ee87f09de82604051610307919061121c565b60405180910390a15050505050565b60006002600083815260200190815260200160002090508060000160009054906101000a900473ffffffffffffffffffffffffffffffffffffffff1673ffffffffffffffffffffffffffffffffffffffff163373ffffffffffffffffffffffffffffffffffffffff16146103bf576040517f08c379a00000000000000000000000000000000000000000000000000000000081526004016103b690611558565b60405180910390fd5b8060000160009054906101000a900473ffffffffffffffffffffffffffffffffffffffff1673ffffffffffffffffffffffffffffffffffffffff166108fc82600101549081150290604051600060405180830381858888f1935050505015801561042d573d6000803e3d6000fd5b50600081600101819055505050565b60015481565b60006002600084815260200190815260200160002090508060000160009054906101000a900473ffffffffffffffffffffffffffffffffffffffff1673ffffffffffffffffffffffffffffffffffffffff163373ffffffffffffffffffffffffffffffffffffffff16036104eb576040517f08c379a00000000000000000000000000000000000000000000000000000000081526004016104e2906115c4565b60405180910390fd5b60008160050160003373ffffffffffffffffffffffffffffffffffffffff1673ffffffffffffffffffffffffffffffffffffffff16815260200190815260200160002054905082810361053f57505061083d565b600061054b8285610c46565b90508060008054906101000a900473ffffffffffffffffffffffffffffffffffffffff1673ffffffffffffffffffffffffffffffffffffffff1663c07473f6336040518263ffffffff1660e01b81526004016105a791906115f3565b602060405180830381865afa1580156105c4573d6000803e3d6000fd5b505050506040513d601f19601f820116820180604052508101906105e89190611623565b1015610629576040517f08c379a00000000000000000000000000000000000000000000000000000000081526004016106209061169c565b60405180910390fd5b838360050160003373ffffffffffffffffffffffffffffffffffffffff1673ffffffffffffffffffffffffffffffffffffffff16815260200190815260200160002081905550818461067b91906116bc565b83600701600082825461068e91906116f0565b9250508190555060008054906101000a900473ffffffffffffffffffffffffffffffffffffffff1673ffffffffffffffffffffffffffffffffffffffff166323b872dd338560000160009054906101000a900473ffffffffffffffffffffffffffffffffffffffff16846040518463ffffffff1660e01b8152600401610716939291906117a5565b6020604051808303816000875af1158015610735573d6000803e3d6000fd5b505050506040513d601f19601f8201168201806040525081019061075991906117f1565b508260060160003373ffffffffffffffffffffffffffffffffffffffff1673ffffffffffffffffffffffffffffffffffffffff168152602001908152602001600020548360080160008282546107af91906116bc565b9250508190555060008360060160003373ffffffffffffffffffffffffffffffffffffffff1673ffffffffffffffffffffffffffffffffffffffff168152602001908152602001600020819055507f67b60bc862e9c013a238015361df4bb95a4abfe78309ba4a4d7a04d2fe29e432858560016040516108319392919061182d565b60405180910390a15050505b5050565b60006002600084815260200190815260200160002090508060000160009054906101000a900473ffffffffffffffffffffffffffffffffffffffff1673ffffffffffffffffffffffffffffffffffffffff163373ffffffffffffffffffffffffffffffffffffffff16036108ea576040517f08c379a00000000000000000000000000000000000000000000000000000000081526004016108e1906115c4565b60405180910390fd5b60008160060160003373ffffffffffffffffffffffffffffffffffffffff1673ffffffffffffffffffffffffffffffffffffffff16815260200190815260200160002054905082810361093e575050610c3c565b600061094a8285610c46565b90508060008054906101000a900473ffffffffffffffffffffffffffffffffffffffff1673ffffffffffffffffffffffffffffffffffffffff1663c07473f6336040518263ffffffff1660e01b81526004016109a691906115f3565b602060405180830381865afa1580156109c3573d6000803e3d6000fd5b505050506040513d601f19601f820116820180604052508101906109e79190611623565b1015610a28576040517f08c379a0000000000000000000000000000000000000000000000000000000008152600401610a1f9061169c565b60405180910390fd5b838360060160003373ffffffffffffffffffffffffffffffffffffffff1673ffffffffffffffffffffffffffffffffffffffff168152602001908152602001600020819055508184610a7a91906116bc565b836008016000828254610a8d91906116f0565b9250508190555060008054906101000a900473ffffffffffffffffffffffffffffffffffffffff1673ffffffffffffffffffffffffffffffffffffffff166323b872dd338560000160009054906101000a900473ffffffffffffffffffffffffffffffffffffffff16846040518463ffffffff1660e01b8152600401610b15939291906117a5565b6020604051808303816000875af1158015610b34573d6000803e3d6000fd5b505050506040513d601f19601f82011682018060405250810190610b5891906117f1565b508260050160003373ffffffffffffffffffffffffffffffffffffffff1673ffffffffffffffffffffffffffffffffffffffff16815260200190815260200160002054836007016000828254610bae91906116bc565b9250508190555060008360050160003373ffffffffffffffffffffffffffffffffffffffff1673ffffffffffffffffffffffffffffffffffffffff168152602001908152602001600020819055507f67b60bc862e9c013a238015361df4bb95a4abfe78309ba4a4d7a04d2fe29e43285856000604051610c309392919061182d565b60405180910390a15050505b5050565b60035481565b600081831115610c70576001548283610c5f9190611864565b610c699190611864565b9050610cb3565b81831015610cae576001548384610c879190611864565b8384610c939190611864565b610c9d91906116bc565b610ca79190611864565b9050610cb3565b600090505b92915050565b60026020528060005260406000206000915090508060000160009054906101000a900473ffffffffffffffffffffffffffffffffffffffff1690806001015490806002015490806003018054610d0e906118ed565b80601f0160208091040260200160405190810160405280929190818152602001828054610d3a906118ed565b8015610d875780601f10610d5c57610100808354040283529160200191610d87565b820191906000526020600020905b815481529060010190602001808311610d6a57829003601f168201915b505050505090806004018054610d9c906118ed565b80601f0160208091040260200160405190810160405280929190818152602001828054610dc8906118ed565b8015610e155780601f10610dea57610100808354040283529160200191610e15565b820191906000526020600020905b815481529060010190602001808311610df857829003601f168201915b5050505050908060070154908060080154905087565b60008115610e8e576002600085815260200190815260200160002060050160008473ffffffffffffffffffffffffffffffffffffffff1673ffffffffffffffffffffffffffffffffffffffff168152602001908152602001600020549050610ee5565b6002600085815260200190815260200160002060060160008473ffffffffffffffffffffffffffffffffffffffff1673ffffffffffffffffffffffffffffffffffffffff1681526020019081526020016000205490505b9392505050565b828054610ef8906118ed565b90600052602060002090601f016020900481019282610f1a5760008555610f61565b82601f10610f3357805160ff1916838001178555610f61565b82800160010185558215610f61579182015b82811115610f60578251825591602001919060010190610f45565b5b509050610f6e9190610f72565b5090565b5b80821115610f8b576000816000905550600101610f73565b5090565b6000604051905090565b600080fd5b600080fd5b6000819050919050565b610fb681610fa3565b8114610fc157600080fd5b50565b600081359050610fd381610fad565b92915050565b600080fd5b600080fd5b6000601f19601f8301169050919050565b7f4e487b7100000000000000000000000000000000000000000000000000000000600052604160045260246000fd5b61102c82610fe3565b810181811067ffffffffffffffff8211171561104b5761104a610ff4565b5b80604052505050565b600061105e610f8f565b905061106a8282611023565b919050565b600067ffffffffffffffff82111561108a57611089610ff4565b5b61109382610fe3565b9050602081019050919050565b82818337600083830152505050565b60006110c26110bd8461106f565b611054565b9050828152602081018484840111156110de576110dd610fde565b5b6110e98482856110a0565b509392505050565b600082601f83011261110657611105610fd9565b5b81356111168482602086016110af565b91505092915050565b60008060006060848603121561113857611137610f99565b5b600061114686828701610fc4565b935050602084013567ffffffffffffffff81111561116757611166610f9e565b5b611173868287016110f1565b925050604084013567ffffffffffffffff81111561119457611193610f9e565b5b6111a0868287016110f1565b9150509250925092565b6000819050919050565b6111bd816111aa565b81146111c857600080fd5b50565b6000813590506111da816111b4565b92915050565b6000602082840312156111f6576111f5610f99565b5b6000611204848285016111cb565b91505092915050565b611216816111aa565b82525050565b6000602082019050611231600083018461120d565b92915050565b6000806040838503121561124e5761124d610f99565b5b600061125c858286016111cb565b925050602061126d858286016111cb565b9150509250929050565b600073ffffffffffffffffffffffffffffffffffffffff82169050919050565b60006112a282611277565b9050919050565b6112b281611297565b82525050565b6112c181610fa3565b82525050565b600081519050919050565b600082825260208201905092915050565b60005b838110156113015780820151818401526020810190506112e6565b83811115611310576000848401525b50505050565b6000611321826112c7565b61132b81856112d2565b935061133b8185602086016112e3565b61134481610fe3565b840191505092915050565b600060e082019050611364600083018a6112a9565b611371602083018961120d565b61137e60408301886112b8565b81810360608301526113908187611316565b905081810360808301526113a48186611316565b90506113b360a083018561120d565b6113c060c083018461120d565b98975050505050505050565b60006113d782611277565b9050919050565b6113e7816113cc565b81146113f257600080fd5b50565b600081359050611404816113de565b92915050565b60008115159050919050565b61141f8161140a565b811461142a57600080fd5b50565b60008135905061143c81611416565b92915050565b60008060006060848603121561145b5761145a610f99565b5b6000611469868287016111cb565b935050602061147a868287016113f5565b925050604061148b8682870161142d565b9150509250925092565b7f4e487b7100000000000000000000000000000000000000000000000000000000600052601160045260246000fd5b60006114cf826111aa565b91507fffffffffffffffffffffffffffffffffffffffffffffffffffffffffffffffff820361150157611500611495565b5b600182019050919050565b7f4e6f7420746865204974656d204f776e65720000000000000000000000000000600082015250565b60006115426012836112d2565b915061154d8261150c565b602082019050919050565b6000602082019050818103600083015261157181611535565b9050919050565b7f4974656d204f776e65722063616e6e6f7420566f746500000000000000000000600082015250565b60006115ae6016836112d2565b91506115b982611578565b602082019050919050565b600060208201905081810360008301526115dd816115a1565b9050919050565b6115ed816113cc565b82525050565b600060208201905061160860008301846115e4565b92915050565b60008151905061161d816111b4565b92915050565b60006020828403121561163957611638610f99565b5b60006116478482850161160e565b91505092915050565b7f4e6f7420456e6f7567682042616c616e636520746f20566f7465000000000000600082015250565b6000611686601a836112d2565b915061169182611650565b602082019050919050565b600060208201905081810360008301526116b581611679565b9050919050565b60006116c7826111aa565b91506116d2836111aa565b9250828210156116e5576116e4611495565b5b828203905092915050565b60006116fb826111aa565b9150611706836111aa565b9250827fffffffffffffffffffffffffffffffffffffffffffffffffffffffffffffffff0382111561173b5761173a611495565b5b828201905092915050565b6000819050919050565b600061176b61176661176184611277565b611746565b611277565b9050919050565b600061177d82611750565b9050919050565b600061178f82611772565b9050919050565b61179f81611784565b82525050565b60006060820190506117ba60008301866115e4565b6117c76020830185611796565b6117d4604083018461120d565b949350505050565b6000815190506117eb81611416565b92915050565b60006020828403121561180757611806610f99565b5b6000611815848285016117dc565b91505092915050565b6118278161140a565b82525050565b6000606082019050611842600083018661120d565b61184f602083018561120d565b61185c604083018461181e565b949350505050565b600061186f826111aa565b915061187a836111aa565b9250817fffffffffffffffffffffffffffffffffffffffffffffffffffffffffffffffff04831182151516156118b3576118b2611495565b5b828202905092915050565b7f4e487b7100000000000000000000000000000000000000000000000000000000600052602260045260246000fd5b6000600282049050600182168061190557607f821691505b602082108103611918576119176118be565b5b5091905056fea2646970667358221220dab8effb210a78aa13c592369e60c151f2ab5147c97f0f4b92e72caf8f90bae564736f6c634300080d0033",
  "linkReferences": {},
  "deployedLinkReferences": {}
}