{
  "_format": "hh-sol-artifact-1",
  "contractName": "QuadraticVoting_Simple",
  "sourceName": "contracts/QuadraticVoting_Simple.sol",
  "abi": [
    {
      "inputs": [
        {
          "internalType": "address",
          "name": "Membership_Abstraction_contract",
          "type": "address"
        },
        {
          "internalType": "uint256",
          "name": "CostofVote",
          "type": "uint256"
        }
      ],
      "stateMutability": "nonpayable",
      "type": "constructor"
    },
    {
      "anonymous": false,
      "inputs": [
        {
          "indexed": false,
          "internalType": "uint256",
          "name": "itemId",
          "type": "uint256"
        }
      ],
      "name": "ItemCreated",
      "type": "event"
    },
    {
      "anonymous": false,
      "inputs": [
        {
          "indexed": false,
          "internalType": "uint256",
          "name": "itemId",
          "type": "uint256"
        },
        {
          "indexed": false,
          "internalType": "uint256",
          "name": "weight",
          "type": "uint256"
        },
        {
          "indexed": false,
          "internalType": "bool",
          "name": "positive",
          "type": "bool"
        }
      ],
      "name": "Voted",
      "type": "event"
    },
    {
      "inputs": [
        {
          "internalType": "uint256",
          "name": "currWeight",
          "type": "uint256"
        },
        {
          "internalType": "uint256",
          "name": "weight",
          "type": "uint256"
        }
      ],
      "name": "calcCost",
      "outputs": [
        {
          "internalType": "uint256",
          "name": "",
          "type": "uint256"
        }
      ],
      "stateMutability": "view",
      "type": "function"
    },
    {
      "inputs": [
        {
          "internalType": "uint256",
          "name": "itemId",
          "type": "uint256"
        }
      ],
      "name": "claim",
      "outputs": [],
      "stateMutability": "nonpayable",
      "type": "function"
    },
    {
      "inputs": [
        {
          "internalType": "string",
          "name": "title",
          "type": "string"
        },
        {
          "internalType": "string",
          "name": "imageHash",
          "type": "string"
        },
        {
          "internalType": "string",
          "name": "description",
          "type": "string"
        }
      ],
      "name": "createItem",
      "outputs": [],
      "stateMutability": "nonpayable",
      "type": "function"
    },
    {
      "inputs": [
        {
          "internalType": "uint256",
          "name": "itemId",
          "type": "uint256"
        },
        {
          "internalType": "address",
          "name": "addr",
          "type": "address"
        },
        {
          "internalType": "bool",
          "name": "isPositive",
          "type": "bool"
        }
      ],
      "name": "currentWeight",
      "outputs": [
        {
          "internalType": "uint256",
          "name": "",
          "type": "uint256"
        }
      ],
      "stateMutability": "view",
      "type": "function"
    },
    {
      "inputs": [],
      "name": "itemCount",
      "outputs": [
        {
          "internalType": "uint256",
          "name": "",
          "type": "uint256"
        }
      ],
      "stateMutability": "view",
      "type": "function"
    },
    {
      "inputs": [
        {
          "internalType": "uint256",
          "name": "",
          "type": "uint256"
        }
      ],
      "name": "items",
      "outputs": [
        {
          "internalType": "address payable",
          "name": "owner",
          "type": "address"
        },
        {
          "internalType": "uint256",
          "name": "amount",
          "type": "uint256"
        },
        {
          "internalType": "string",
          "name": "title",
          "type": "string"
        },
        {
          "internalType": "string",
          "name": "imageHash",
          "type": "string"
        },
        {
          "internalType": "string",
          "name": "description",
          "type": "string"
        },
        {
          "internalType": "uint256",
          "name": "totalPositiveWeight",
          "type": "uint256"
        },
        {
          "internalType": "uint256",
          "name": "totalNegativeWeight",
          "type": "uint256"
        }
      ],
      "stateMutability": "view",
      "type": "function"
    },
    {
      "inputs": [
        {
          "internalType": "uint256",
          "name": "itemId",
          "type": "uint256"
        },
        {
          "internalType": "uint256",
          "name": "weight",
          "type": "uint256"
        }
      ],
      "name": "negativeVote",
      "outputs": [],
      "stateMutability": "payable",
      "type": "function"
    },
    {
      "inputs": [
        {
          "internalType": "uint256",
          "name": "itemId",
          "type": "uint256"
        },
        {
          "internalType": "uint256",
          "name": "weight",
          "type": "uint256"
        }
      ],
      "name": "positiveVote",
      "outputs": [],
      "stateMutability": "payable",
      "type": "function"
    },
    {
      "inputs": [],
      "name": "voteCost",
      "outputs": [
        {
          "internalType": "uint256",
          "name": "",
          "type": "uint256"
        }
      ],
      "stateMutability": "view",
      "type": "function"
    }
  ],
  "bytecode": "0x608060405260006003553480156200001657600080fd5b50604051620019c1380380620019c183398181016040528101906200003c919062000130565b816000806101000a81548173ffffffffffffffffffffffffffffffffffffffff021916908373ffffffffffffffffffffffffffffffffffffffff16021790555080600181905550505062000177565b600080fd5b600073ffffffffffffffffffffffffffffffffffffffff82169050919050565b6000620000bd8262000090565b9050919050565b620000cf81620000b0565b8114620000db57600080fd5b50565b600081519050620000ef81620000c4565b92915050565b6000819050919050565b6200010a81620000f5565b81146200011657600080fd5b50565b6000815190506200012a81620000ff565b92915050565b600080604083850312156200014a57620001496200008b565b5b60006200015a85828601620000de565b92505060206200016d8582860162000119565b9150509250929050565b61183a80620001876000396000f3fe6080604052600436106100865760003560e01c80636bfb0d01116100595780636bfb0d0114610117578063876ab02b14610142578063a5a13ddc1461016b578063bfb231d2146101a8578063d7921a5b146101eb57610086565b8063379607f51461008b5780634c1b8ffd146100b4578063602ecffe146100df5780636984ef2a146100fb575b600080fd5b34801561009757600080fd5b506100b260048036038101906100ad9190610f4d565b610228565b005b3480156100c057600080fd5b506100c961034e565b6040516100d69190610f89565b60405180910390f35b6100f960048036038101906100f49190610fa4565b610354565b005b61011560048036038101906101109190610fa4565b6106c1565b005b34801561012357600080fd5b5061012c610a2e565b6040516101399190610f89565b60405180910390f35b34801561014e57600080fd5b506101696004803603810190610164919061112a565b610a34565b005b34801561017757600080fd5b50610192600480360381019061018d9190610fa4565b610b32565b60405161019f9190610f89565b60405180910390f35b3480156101b457600080fd5b506101cf60048036038101906101ca9190610f4d565b610ba5565b6040516101e2979695949392919061129a565b60405180910390f35b3480156101f757600080fd5b50610212600480360381019061020d9190611394565b610d9f565b60405161021f9190610f89565b60405180910390f35b60006002600083815260200190815260200160002090508060000160009054906101000a900473ffffffffffffffffffffffffffffffffffffffff1673ffffffffffffffffffffffffffffffffffffffff163373ffffffffffffffffffffffffffffffffffffffff16146102d1576040517f08c379a00000000000000000000000000000000000000000000000000000000081526004016102c890611433565b60405180910390fd5b8060000160009054906101000a900473ffffffffffffffffffffffffffffffffffffffff1673ffffffffffffffffffffffffffffffffffffffff166108fc82600101549081150290604051600060405180830381858888f1935050505015801561033f573d6000803e3d6000fd5b50600081600101819055505050565b60015481565b600060026000848152602001908152602001600020905060008160050160003373ffffffffffffffffffffffffffffffffffffffff1673ffffffffffffffffffffffffffffffffffffffff1681526020019081526020016000205490508281036103bf5750506106bd565b60006103cb8285610b32565b90508060008054906101000a900473ffffffffffffffffffffffffffffffffffffffff1673ffffffffffffffffffffffffffffffffffffffff1663c07473f6336040518263ffffffff1660e01b81526004016104279190611462565b602060405180830381865afa158015610444573d6000803e3d6000fd5b505050506040513d601f19601f820116820180604052508101906104689190611492565b10156104a9576040517f08c379a00000000000000000000000000000000000000000000000000000000081526004016104a09061150b565b60405180910390fd5b838360050160003373ffffffffffffffffffffffffffffffffffffffff1673ffffffffffffffffffffffffffffffffffffffff1681526020019081526020016000208190555081846104fb919061155a565b83600701600082825461050e919061158e565b9250508190555060008054906101000a900473ffffffffffffffffffffffffffffffffffffffff1673ffffffffffffffffffffffffffffffffffffffff166323b872dd338560000160009054906101000a900473ffffffffffffffffffffffffffffffffffffffff16846040518463ffffffff1660e01b815260040161059693929190611643565b6020604051808303816000875af11580156105b5573d6000803e3d6000fd5b505050506040513d601f19601f820116820180604052508101906105d9919061168f565b508260060160003373ffffffffffffffffffffffffffffffffffffffff1673ffffffffffffffffffffffffffffffffffffffff1681526020019081526020016000205483600801600082825461062f919061155a565b9250508190555060008360060160003373ffffffffffffffffffffffffffffffffffffffff1673ffffffffffffffffffffffffffffffffffffffff168152602001908152602001600020819055507f67b60bc862e9c013a238015361df4bb95a4abfe78309ba4a4d7a04d2fe29e432858560016040516106b1939291906116cb565b60405180910390a15050505b5050565b600060026000848152602001908152602001600020905060008160060160003373ffffffffffffffffffffffffffffffffffffffff1673ffffffffffffffffffffffffffffffffffffffff16815260200190815260200160002054905082810361072c575050610a2a565b60006107388285610b32565b90508060008054906101000a900473ffffffffffffffffffffffffffffffffffffffff1673ffffffffffffffffffffffffffffffffffffffff1663c07473f6336040518263ffffffff1660e01b81526004016107949190611462565b602060405180830381865afa1580156107b1573d6000803e3d6000fd5b505050506040513d601f19601f820116820180604052508101906107d59190611492565b1015610816576040517f08c379a000000000000000000000000000000000000000000000000000000000815260040161080d9061150b565b60405180910390fd5b838360060160003373ffffffffffffffffffffffffffffffffffffffff1673ffffffffffffffffffffffffffffffffffffffff168152602001908152602001600020819055508184610868919061155a565b83600801600082825461087b919061158e565b9250508190555060008054906101000a900473ffffffffffffffffffffffffffffffffffffffff1673ffffffffffffffffffffffffffffffffffffffff166323b872dd338560000160009054906101000a900473ffffffffffffffffffffffffffffffffffffffff16846040518463ffffffff1660e01b815260040161090393929190611643565b6020604051808303816000875af1158015610922573d6000803e3d6000fd5b505050506040513d601f19601f82011682018060405250810190610946919061168f565b508260050160003373ffffffffffffffffffffffffffffffffffffffff1673ffffffffffffffffffffffffffffffffffffffff1681526020019081526020016000205483600701600082825461099c919061155a565b9250508190555060008360050160003373ffffffffffffffffffffffffffffffffffffffff1673ffffffffffffffffffffffffffffffffffffffff168152602001908152602001600020819055507f67b60bc862e9c013a238015361df4bb95a4abfe78309ba4a4d7a04d2fe29e43285856000604051610a1e939291906116cb565b60405180910390a15050505b5050565b60035481565b600060036000815480929190610a4990611702565b9190505590506000600260008381526020019081526020016000209050338160000160006101000a81548173ffffffffffffffffffffffffffffffffffffffff021916908373ffffffffffffffffffffffffffffffffffffffff16021790555084816002019080519060200190610ac1929190610e60565b5083816003019080519060200190610ada929190610e60565b5082816004019080519060200190610af3929190610e60565b507fa26a7a3d8c7ebb9fc47c7fdfd8af05a15da0ff8d51b883930669ed3ee87f09de82604051610b239190610f89565b60405180910390a15050505050565b600081831115610b5c576001548283610b4b919061174a565b610b55919061174a565b9050610b9f565b81831015610b9a576001548384610b73919061174a565b8384610b7f919061174a565b610b89919061155a565b610b93919061174a565b9050610b9f565b600090505b92915050565b60026020528060005260406000206000915090508060000160009054906101000a900473ffffffffffffffffffffffffffffffffffffffff1690806001015490806002018054610bf4906117d3565b80601f0160208091040260200160405190810160405280929190818152602001828054610c20906117d3565b8015610c6d5780601f10610c4257610100808354040283529160200191610c6d565b820191906000526020600020905b815481529060010190602001808311610c5057829003601f168201915b505050505090806003018054610c82906117d3565b80601f0160208091040260200160405190810160405280929190818152602001828054610cae906117d3565b8015610cfb5780601f10610cd057610100808354040283529160200191610cfb565b820191906000526020600020905b815481529060010190602001808311610cde57829003601f168201915b505050505090806004018054610d10906117d3565b80601f0160208091040260200160405190810160405280929190818152602001828054610d3c906117d3565b8015610d895780601f10610d5e57610100808354040283529160200191610d89565b820191906000526020600020905b815481529060010190602001808311610d6c57829003601f168201915b5050505050908060070154908060080154905087565b60008115610e02576002600085815260200190815260200160002060050160008473ffffffffffffffffffffffffffffffffffffffff1673ffffffffffffffffffffffffffffffffffffffff168152602001908152602001600020549050610e59565b6002600085815260200190815260200160002060060160008473ffffffffffffffffffffffffffffffffffffffff1673ffffffffffffffffffffffffffffffffffffffff1681526020019081526020016000205490505b9392505050565b828054610e6c906117d3565b90600052602060002090601f016020900481019282610e8e5760008555610ed5565b82601f10610ea757805160ff1916838001178555610ed5565b82800160010185558215610ed5579182015b82811115610ed4578251825591602001919060010190610eb9565b5b509050610ee29190610ee6565b5090565b5b80821115610eff576000816000905550600101610ee7565b5090565b6000604051905090565b600080fd5b600080fd5b6000819050919050565b610f2a81610f17565b8114610f3557600080fd5b50565b600081359050610f4781610f21565b92915050565b600060208284031215610f6357610f62610f0d565b5b6000610f7184828501610f38565b91505092915050565b610f8381610f17565b82525050565b6000602082019050610f9e6000830184610f7a565b92915050565b60008060408385031215610fbb57610fba610f0d565b5b6000610fc985828601610f38565b9250506020610fda85828601610f38565b9150509250929050565b600080fd5b600080fd5b6000601f19601f8301169050919050565b7f4e487b7100000000000000000000000000000000000000000000000000000000600052604160045260246000fd5b61103782610fee565b810181811067ffffffffffffffff8211171561105657611055610fff565b5b80604052505050565b6000611069610f03565b9050611075828261102e565b919050565b600067ffffffffffffffff82111561109557611094610fff565b5b61109e82610fee565b9050602081019050919050565b82818337600083830152505050565b60006110cd6110c88461107a565b61105f565b9050828152602081018484840111156110e9576110e8610fe9565b5b6110f48482856110ab565b509392505050565b600082601f83011261111157611110610fe4565b5b81356111218482602086016110ba565b91505092915050565b60008060006060848603121561114357611142610f0d565b5b600084013567ffffffffffffffff81111561116157611160610f12565b5b61116d868287016110fc565b935050602084013567ffffffffffffffff81111561118e5761118d610f12565b5b61119a868287016110fc565b925050604084013567ffffffffffffffff8111156111bb576111ba610f12565b5b6111c7868287016110fc565b9150509250925092565b600073ffffffffffffffffffffffffffffffffffffffff82169050919050565b60006111fc826111d1565b9050919050565b61120c816111f1565b82525050565b600081519050919050565b600082825260208201905092915050565b60005b8381101561124c578082015181840152602081019050611231565b8381111561125b576000848401525b50505050565b600061126c82611212565b611276818561121d565b935061128681856020860161122e565b61128f81610fee565b840191505092915050565b600060e0820190506112af600083018a611203565b6112bc6020830189610f7a565b81810360408301526112ce8188611261565b905081810360608301526112e28187611261565b905081810360808301526112f68186611261565b905061130560a0830185610f7a565b61131260c0830184610f7a565b98975050505050505050565b6000611329826111d1565b9050919050565b6113398161131e565b811461134457600080fd5b50565b60008135905061135681611330565b92915050565b60008115159050919050565b6113718161135c565b811461137c57600080fd5b50565b60008135905061138e81611368565b92915050565b6000806000606084860312156113ad576113ac610f0d565b5b60006113bb86828701610f38565b93505060206113cc86828701611347565b92505060406113dd8682870161137f565b9150509250925092565b7f4e6f7420746865204974656d204f776e65720000000000000000000000000000600082015250565b600061141d60128361121d565b9150611428826113e7565b602082019050919050565b6000602082019050818103600083015261144c81611410565b9050919050565b61145c8161131e565b82525050565b60006020820190506114776000830184611453565b92915050565b60008151905061148c81610f21565b92915050565b6000602082840312156114a8576114a7610f0d565b5b60006114b68482850161147d565b91505092915050565b7f4e6f7420456e6f7567682042616c616e636520746f20566f7465000000000000600082015250565b60006114f5601a8361121d565b9150611500826114bf565b602082019050919050565b60006020820190508181036000830152611524816114e8565b9050919050565b7f4e487b7100000000000000000000000000000000000000000000000000000000600052601160045260246000fd5b600061156582610f17565b915061157083610f17565b9250828210156115835761158261152b565b5b828203905092915050565b600061159982610f17565b91506115a483610f17565b9250827fffffffffffffffffffffffffffffffffffffffffffffffffffffffffffffffff038211156115d9576115d861152b565b5b828201905092915050565b6000819050919050565b60006116096116046115ff846111d1565b6115e4565b6111d1565b9050919050565b600061161b826115ee565b9050919050565b600061162d82611610565b9050919050565b61163d81611622565b82525050565b60006060820190506116586000830186611453565b6116656020830185611634565b6116726040830184610f7a565b949350505050565b60008151905061168981611368565b92915050565b6000602082840312156116a5576116a4610f0d565b5b60006116b38482850161167a565b91505092915050565b6116c58161135c565b82525050565b60006060820190506116e06000830186610f7a565b6116ed6020830185610f7a565b6116fa60408301846116bc565b949350505050565b600061170d82610f17565b91507fffffffffffffffffffffffffffffffffffffffffffffffffffffffffffffffff820361173f5761173e61152b565b5b600182019050919050565b600061175582610f17565b915061176083610f17565b9250817fffffffffffffffffffffffffffffffffffffffffffffffffffffffffffffffff04831182151516156117995761179861152b565b5b828202905092915050565b7f4e487b7100000000000000000000000000000000000000000000000000000000600052602260045260246000fd5b600060028204905060018216806117eb57607f821691505b6020821081036117fe576117fd6117a4565b5b5091905056fea264697066735822122073bef69bfa698af597a1e999bf2cae7bc9f90a499de0e8c3809e2ee9527a625c64736f6c634300080d0033",
  "linkReferences": {},
  "deployedLinkReferences": {}
}